8=FIX.4.4|9=133|35=A|34=1|49=cf030e89c06043adbcd53a5b240a8910|52=20260424-02:28:27.737|56=SERVER|1=D1|98=0|108=30|141=Y|553=Group07|554=U13tC8z6H8tO|10=142|8=FIX.4.4|9=98|35=0|34=2|49=cf030e89c06043adbcd53a5b240a8910|52=20260424-02:28:57.594|56=SERVER|1=D1|553=Group07|10=159|8=FIX.4.4|9=98|35=0|34=3|49=cf030e89c06043adbcd53a5b240a8910|52=20260424-02:29:27.543|56=SERVER|1=D1|553=Group07|10=152|8=FIX.4.4|9=98|35=0|34=4|49=cf030e89c06043adbcd53a5b240a8910|52=20260424-02:29:57.351|56=SERVER|1=D1|553=Group07|10=153|8=FIX.4.4|9=98|35=0|34=5|49=cf030e89c06043adbcd53a5b240a8910|52=20260424-02:30:27.367|56=SERVER|1=D1|553=Group07|10=150|8=FIX.4.4|9=98|35=0|34=6|49=cf030e89c06043adbcd53a5b240a8910|52=20260424-02:30:57.031|56=SERVER|1=D1|553=Group07|10=142|