8=FIX.4.4|9=135|35=A|34=1|49=cf030e89c06043adbcd53a5b240a8910|52=20260428-03:27:17.054|56=SERVER|1=main|98=0|108=30|141=Y|553=Group07|554=U13tC8z6H8tO|10=187|8=FIX.4.4|9=100|35=0|34=2|49=cf030e89c06043adbcd53a5b240a8910|52=20260428-03:27:47.738|56=SERVER|1=main|553=Group07|10=242|8=FIX.4.4|9=100|35=0|34=3|49=cf030e89c06043adbcd53a5b240a8910|52=20260428-03:28:17.578|56=SERVER|1=main|553=Group07|10=243|8=FIX.4.4|9=100|35=0|34=4|49=cf030e89c06043adbcd53a5b240a8910|52=20260428-03:28:47.239|56=SERVER|1=main|553=Group07|10=241|8=FIX.4.4|9=100|35=0|34=5|49=cf030e89c06043adbcd53a5b240a8910|52=20260428-03:29:17.256|56=SERVER|1=main|553=Group07|10=239|8=FIX.4.4|9=100|35=0|34=6|49=cf030e89c06043adbcd53a5b240a8910|52=20260428-03:29:47.212|56=SERVER|1=main|553=Group07|10=235|8=FIX.4.4|9=100|35=0|34=7|49=cf030e89c06043adbcd53a5b240a8910|52=20260428-03:30:17.032|56=SERVER|1=main|553=Group07|10=225|8=FIX.4.4|9=100|35=0|34=8|49=cf030e89c06043adbcd53a5b240a8910|52=20260428-03:30:47.025|56=SERVER|1=main|553=Group07|10=231|8=FIX.4.4|9=100|35=0|34=9|49=cf030e89c06043adbcd53a5b240a8910|52=20260428-03:31:17.657|56=SERVER|1=main|553=Group07|10=241|8=FIX.4.4|9=101|35=0|34=10|49=cf030e89c06043adbcd53a5b240a8910|52=20260428-03:31:47.748|56=SERVER|1=main|553=Group07|10=030|8=FIX.4.4|9=187|35=D|34=11|49=cf030e89c06043adbcd53a5b240a8910|52=20260428-03:32:04.962|56=SERVER|1=main|11=11cccce6|38=1|40=2|44=2022.4|54=1|55=VN30F2605|59=1|60=20260428-03:32:04|207=HNXDS|553=Group07|10=186|8=FIX.4.4|9=101|35=0|34=12|49=cf030e89c06043adbcd53a5b240a8910|52=20260428-03:32:34.329|56=SERVER|1=main|553=Group07|10=024|8=FIX.4.4|9=101|35=0|34=13|49=cf030e89c06043adbcd53a5b240a8910|52=20260428-03:33:04.580|56=SERVER|1=main|553=Group07|10=022|8=FIX.4.4|9=101|35=0|34=14|49=cf030e89c06043adbcd53a5b240a8910|52=20260428-03:33:34.415|56=SERVER|1=main|553=Group07|10=023|8=FIX.4.4|9=101|35=0|34=15|49=cf030e89c06043adbcd53a5b240a8910|52=20260428-03:34:04.043|56=SERVER|1=main|553=Group07|10=019|8=FIX.4.4|9=101|35=0|34=16|49=cf030e89c06043adbcd53a5b240a8910|52=20260428-03:34:34.373|56=SERVER|1=main|553=Group07|10=029|8=FIX.4.4|9=101|35=0|34=17|49=cf030e89c06043adbcd53a5b240a8910|52=20260428-03:35:04.200|56=SERVER|1=main|553=Group07|10=017|8=FIX.4.4|9=101|35=0|34=18|49=cf030e89c06043adbcd53a5b240a8910|52=20260428-03:35:34.186|56=SERVER|1=main|553=Group07|10=034|8=FIX.4.4|9=101|35=0|34=19|49=cf030e89c06043adbcd53a5b240a8910|52=20260428-03:36:04.251|56=SERVER|1=main|553=Group07|10=026|8=FIX.4.4|9=187|35=D|34=20|49=cf030e89c06043adbcd53a5b240a8910|52=20260428-03:36:12.624|56=SERVER|1=main|11=e3ce53d7|38=1|40=2|44=2021.2|54=2|55=VN30F2605|59=1|60=20260428-03:36:12|207=HNXDS|553=Group07|10=147|8=FIX.4.4|9=101|35=0|34=21|49=cf030e89c06043adbcd53a5b240a8910|52=20260428-03:36:42.025|56=SERVER|1=main|553=Group07|10=020|8=FIX.4.4|9=101|35=0|34=22|49=cf030e89c06043adbcd53a5b240a8910|52=20260428-03:37:12.031|56=SERVER|1=main|553=Group07|10=016|8=FIX.4.4|9=101|35=0|34=23|49=cf030e89c06043adbcd53a5b240a8910|52=20260428-03:37:42.042|56=SERVER|1=main|553=Group07|10=022|8=FIX.4.4|9=101|35=0|34=24|49=cf030e89c06043adbcd53a5b240a8910|52=20260428-03:38:12.526|56=SERVER|1=main|553=Group07|10=028|8=FIX.4.4|9=101|35=0|34=25|49=cf030e89c06043adbcd53a5b240a8910|52=20260428-03:38:42.361|56=SERVER|1=main|553=Group07|10=029|8=FIX.4.4|9=101|35=0|34=26|49=cf030e89c06043adbcd53a5b240a8910|52=20260428-03:39:12.601|56=SERVER|1=main|553=Group07|10=025|8=FIX.4.4|9=101|35=0|34=27|49=cf030e89c06043adbcd53a5b240a8910|52=20260428-03:39:42.570|56=SERVER|1=main|553=Group07|10=034|8=FIX.4.4|9=187|35=D|34=28|49=cf030e89c06043adbcd53a5b240a8910|52=20260428-03:40:00.181|56=SERVER|1=main|11=38bb164b|38=1|40=2|44=2024.1|54=1|55=VN30F2605|59=1|60=20260428-03:40:00|207=HNXDS|553=Group07|10=083|8=FIX.4.4|9=101|35=0|34=29|49=cf030e89c06043adbcd53a5b240a8910|52=20260428-03:40:30.060|56=SERVER|1=main|553=Group07|10=019|8=FIX.4.4|9=101|35=0|34=30|49=cf030e89c06043adbcd53a5b240a8910|52=20260428-03:41:00.040|56=SERVER|1=main|553=Group07|10=007|8=FIX.4.4|9=187|35=D|34=31|49=cf030e89c06043adbcd53a5b240a8910|52=20260428-03:41:00.080|56=SERVER|1=main|11=0433d0f8|38=1|40=2|44=2024.2|54=2|55=VN30F2605|59=1|60=20260428-03:41:00|207=HNXDS|553=Group07|10=031|8=FIX.4.4|9=101|35=0|34=32|49=cf030e89c06043adbcd53a5b240a8910|52=20260428-03:41:30.442|56=SERVER|1=main|553=Group07|10=018|8=FIX.4.4|9=101|35=0|34=33|49=cf030e89c06043adbcd53a5b240a8910|52=20260428-03:42:00.738|56=SERVER|1=main|553=Group07|10=025|8=FIX.4.4|9=101|35=0|34=34|49=cf030e89c06043adbcd53a5b240a8910|52=20260428-03:42:30.602|56=SERVER|1=main|553=Group07|10=019|8=FIX.4.4|9=101|35=0|34=35|49=cf030e89c06043adbcd53a5b240a8910|52=20260428-03:43:00.099|56=SERVER|1=main|553=Group07|10=028|8=FIX.4.4|9=101|35=0|34=36|49=cf030e89c06043adbcd53a5b240a8910|52=20260428-03:43:30.197|56=SERVER|1=main|553=Group07|10=031|8=FIX.4.4|9=101|35=0|34=37|49=cf030e89c06043adbcd53a5b240a8910|52=20260428-03:44:00.189|56=SERVER|1=main|553=Group07|10=031|8=FIX.4.4|9=101|35=0|34=38|49=cf030e89c06043adbcd53a5b240a8910|52=20260428-03:44:30.099|56=SERVER|1=main|553=Group07|10=035|8=FIX.4.4|9=101|35=0|34=39|49=cf030e89c06043adbcd53a5b240a8910|52=20260428-03:45:00.308|56=SERVER|1=main|553=Group07|10=027|8=FIX.4.4|9=101|35=0|34=40|49=cf030e89c06043adbcd53a5b240a8910|52=20260428-03:45:30.355|56=SERVER|1=main|553=Group07|10=024|8=FIX.4.4|9=101|35=0|34=41|49=cf030e89c06043adbcd53a5b240a8910|52=20260428-03:46:00.011|56=SERVER|1=main|553=Group07|10=012|8=FIX.4.4|9=187|35=D|34=42|49=cf030e89c06043adbcd53a5b240a8910|52=20260428-03:46:00.337|56=SERVER|1=main|11=fd9a62f5|38=1|40=2|44=2028.2|54=1|55=VN30F2605|59=1|60=20260428-03:46:00|207=HNXDS|553=Group07|10=158|8=FIX.4.4|9=101|35=0|34=43|49=cf030e89c06043adbcd53a5b240a8910|52=20260428-03:46:30.017|56=SERVER|1=main|553=Group07|10=023|8=FIX.4.4|9=101|35=0|34=44|49=cf030e89c06043adbcd53a5b240a8910|52=20260428-03:47:00.404|56=SERVER|1=main|553=Group07|10=022|8=FIX.4.4|9=101|35=0|34=45|49=cf030e89c06043adbcd53a5b240a8910|52=20260428-03:47:30.582|56=SERVER|1=main|553=Group07|10=033|8=FIX.4.4|9=101|35=0|34=46|49=cf030e89c06043adbcd53a5b240a8910|52=20260428-03:48:00.375|56=SERVER|1=main|553=Group07|10=032|8=FIX.4.4|9=187|35=D|34=47|49=cf030e89c06043adbcd53a5b240a8910|52=20260428-03:48:23.343|56=SERVER|1=main|11=8006cfba|38=1|40=2|44=2033.5|54=2|55=VN30F2605|59=1|60=20260428-03:48:23|207=HNXDS|553=Group07|10=161|8=FIX.4.4|9=101|35=0|34=48|49=cf030e89c06043adbcd53a5b240a8910|52=20260428-03:48:53.043|56=SERVER|1=main|553=Group07|10=034|8=FIX.4.4|9=101|35=0|34=49|49=cf030e89c06043adbcd53a5b240a8910|52=20260428-03:49:23.379|56=SERVER|1=main|553=Group07|10=045|8=FIX.4.4|9=101|35=0|34=50|49=cf030e89c06043adbcd53a5b240a8910|52=20260428-03:49:53.348|56=SERVER|1=main|553=Group07|10=036|8=FIX.4.4|9=101|35=0|34=51|49=cf030e89c06043adbcd53a5b240a8910|52=20260428-03:50:23.208|56=SERVER|1=main|553=Group07|10=021|8=FIX.4.4|9=187|35=D|34=52|49=cf030e89c06043adbcd53a5b240a8910|52=20260428-03:50:47.648|56=SERVER|1=main|11=ac98b6e0|38=1|40=2|44=2033.5|54=1|55=VN30F2605|59=1|60=20260428-03:50:47|207=HNXDS|553=Group07|10=170|8=FIX.4.4|9=101|35=0|34=53|49=cf030e89c06043adbcd53a5b240a8910|52=20260428-03:51:17.162|56=SERVER|1=main|553=Group07|10=026|8=FIX.4.4|9=101|35=0|34=54|49=cf030e89c06043adbcd53a5b240a8910|52=20260428-03:51:47.034|56=SERVER|1=main|553=Group07|10=028|8=FIX.4.4|9=187|35=D|34=55|49=cf030e89c06043adbcd53a5b240a8910|52=20260428-03:52:00.590|56=SERVER|1=main|11=32fd51f1|38=1|40=2|44=2033.1|54=2|55=VN30F2605|59=1|60=20260428-03:52:00|207=HNXDS|553=Group07|10=094|8=FIX.4.4|9=101|35=0|34=56|49=cf030e89c06043adbcd53a5b240a8910|52=20260428-03:52:30.045|56=SERVER|1=main|553=Group07|10=025|8=FIX.4.4|9=101|35=0|34=57|49=cf030e89c06043adbcd53a5b240a8910|52=20260428-03:53:00.432|56=SERVER|1=main|553=Group07|10=024|8=FIX.4.4|9=101|35=0|34=58|49=cf030e89c06043adbcd53a5b240a8910|52=20260428-03:53:30.468|56=SERVER|1=main|553=Group07|10=037|8=FIX.4.4|9=101|35=0|34=59|49=cf030e89c06043adbcd53a5b240a8910|52=20260428-03:54:00.597|56=SERVER|1=main|553=Group07|10=039|8=FIX.4.4|9=101|35=0|34=60|49=cf030e89c06043adbcd53a5b240a8910|52=20260428-03:54:30.263|56=SERVER|1=main|553=Group07|10=024|8=FIX.4.4|9=101|35=0|34=61|49=cf030e89c06043adbcd53a5b240a8910|52=20260428-03:55:00.622|56=SERVER|1=main|553=Group07|10=022|8=FIX.4.4|9=101|35=0|34=62|49=cf030e89c06043adbcd53a5b240a8910|52=20260428-03:55:30.184|56=SERVER|1=main|553=Group07|10=029|8=FIX.4.4|9=101|35=0|34=63|49=cf030e89c06043adbcd53a5b240a8910|52=20260428-03:56:00.503|56=SERVER|1=main|553=Group07|10=023|8=FIX.4.4|9=101|35=0|34=64|49=cf030e89c06043adbcd53a5b240a8910|52=20260428-03:56:30.448|56=SERVER|1=main|553=Group07|10=035|