[2026-04-28 01:41:29] [DEBUG] [TO ADMIN] 8=FIX.4.4|9=100|35=5|34=1|49=cf030e89c06043adbcd53a5b240a8910|52=20260428-01:41:29.079|56=SERVER|1=main|553=Group07|10=238|
[2026-04-28 01:41:29] [INFO] Session created: FIX.4.4:cf030e89c06043adbcd53a5b240a8910->SERVER
[2026-04-28 01:41:29] [DEBUG] FIXSessionManager initialized config=/tmp/paperbroker_vr5bx23q.cfg username=Group07
[2026-04-28 01:41:29] [DEBUG] RestSession initialized with base_url: https://papertrade.algotrade.vn/accounting
[2026-04-28 01:41:29] [DEBUG] Registered handler for event 'fix:logon'. Total handlers: 1
[2026-04-28 01:41:29] [DEBUG] Registered handler for event 'fix:order:filled'. Total handlers: 2
[2026-04-28 01:41:29] [DEBUG] Registered handler for event 'fix:order:rejected'. Total handlers: 3
[2026-04-28 01:41:29] [INFO] Starting FIX session...
[2026-04-28 01:41:29] [DEBUG] POST https://papertrade.algotrade.vn/accounting/api/fix-account-info/get-fix-id payload_keys=['username', 'password']
[2026-04-28 01:41:29] [DEBUG] [TO ADMIN] 8=FIX.4.4|9=135|35=A|34=1|49=cf030e89c06043adbcd53a5b240a8910|52=20260428-01:41:29.189|56=SERVER|1=main|98=0|108=30|141=Y|553=Group07|554=U13tC8z6H8tO|10=193|
[2026-04-28 01:41:29] [DEBUG] POST https://papertrade.algotrade.vn/accounting/api/fix-account-info/get-fix-id succeeded status_code=200
[2026-04-28 01:41:29] [INFO] event=fix_id_resolved username=Group07 fixAccountID=7aed94a94297406599ec7580013d9bb8
[2026-04-28 01:41:29] [DEBUG] [FROM ADMIN] 8=FIX.4.4|9=99|35=A|34=1|49=SERVER|52=20260428-01:41:29.979|56=cf030e89c06043adbcd53a5b240a8910|98=0|108=30|141=Y|10=199|
[2026-04-28 01:41:29] [INFO] Logon success: FIX.4.4:cf030e89c06043adbcd53a5b240a8910->SERVER
[2026-04-28 01:41:29] [INFO] Order manager session set: FIX.4.4:cf030e89c06043adbcd53a5b240a8910->SERVER
[2026-04-28 01:41:29] [DEBUG] Emitting event 'fix:logon' to 1 handler(s)
[2026-04-28 01:41:29] [INFO] Initialized RedisMarketDataClient: 52.76.242.46:6380 db=0, merge_updates=True
[2026-04-28 01:41:29] [INFO] Registered callback for HNXDS:VN30F2605. Total callbacks: 1
[2026-04-28 01:41:30] [INFO] Connected to Redis: 52.76.242.46:6380
[2026-04-28 01:41:30] [INFO] Subscribed to 1 channels: ['HNXDS:VN30F2605']
[2026-04-28 01:41:30] [INFO] Subscription loop started
[2026-04-28 01:41:30] [INFO] Pub/sub loop running...
[2026-04-28 01:41:59] [DEBUG] [TO ADMIN] 8=FIX.4.4|9=100|35=0|34=2|49=cf030e89c06043adbcd53a5b240a8910|52=20260428-01:41:59.502|56=SERVER|1=main|553=Group07|10=228|
[2026-04-28 01:42:00] [DEBUG] [FROM ADMIN] 8=FIX.4.4|9=81|35=0|34=2|49=SERVER|52=20260428-01:42:00.326|56=cf030e89c06043adbcd53a5b240a8910|10=080|
[2026-04-28 01:42:29] [DEBUG] [TO ADMIN] 8=FIX.4.4|9=100|35=0|34=3|49=cf030e89c06043adbcd53a5b240a8910|52=20260428-01:42:29.612|56=SERVER|1=main|553=Group07|10=229|
[2026-04-28 01:42:30] [DEBUG] [FROM ADMIN] 8=FIX.4.4|9=81|35=0|34=3|49=SERVER|52=20260428-01:42:30.325|56=cf030e89c06043adbcd53a5b240a8910|10=083|
[2026-04-28 01:42:59] [DEBUG] [TO ADMIN] 8=FIX.4.4|9=100|35=0|34=4|49=cf030e89c06043adbcd53a5b240a8910|52=20260428-01:42:59.346|56=SERVER|1=main|553=Group07|10=237|
[2026-04-28 01:43:00] [DEBUG] [FROM ADMIN] 8=FIX.4.4|9=81|35=0|34=4|49=SERVER|52=20260428-01:43:00.325|56=cf030e89c06043adbcd53a5b240a8910|10=082|
[2026-04-28 01:43:29] [DEBUG] [TO ADMIN] 8=FIX.4.4|9=100|35=0|34=5|49=cf030e89c06043adbcd53a5b240a8910|52=20260428-01:43:29.020|56=SERVER|1=main|553=Group07|10=225|
[2026-04-28 01:43:30] [DEBUG] [FROM ADMIN] 8=FIX.4.4|9=81|35=0|34=5|49=SERVER|52=20260428-01:43:30.326|56=cf030e89c06043adbcd53a5b240a8910|10=087|
[2026-04-28 01:43:59] [DEBUG] [TO ADMIN] 8=FIX.4.4|9=100|35=0|34=6|49=cf030e89c06043adbcd53a5b240a8910|52=20260428-01:43:59.205|56=SERVER|1=main|553=Group07|10=234|
[2026-04-28 01:44:00] [DEBUG] [FROM ADMIN] 8=FIX.4.4|9=81|35=0|34=6|49=SERVER|52=20260428-01:44:00.325|56=cf030e89c06043adbcd53a5b240a8910|10=085|
[2026-04-28 01:44:29] [DEBUG] [TO ADMIN] 8=FIX.4.4|9=100|35=0|34=7|49=cf030e89c06043adbcd53a5b240a8910|52=20260428-01:44:29.213|56=SERVER|1=main|553=Group07|10=232|
[2026-04-28 01:44:30] [DEBUG] [FROM ADMIN] 8=FIX.4.4|9=81|35=0|34=7|49=SERVER|52=20260428-01:44:30.325|56=cf030e89c06043adbcd53a5b240a8910|10=089|
[2026-04-28 01:44:59] [DEBUG] [TO ADMIN] 8=FIX.4.4|9=100|35=0|34=8|49=cf030e89c06043adbcd53a5b240a8910|52=20260428-01:44:59.008|56=SERVER|1=main|553=Group07|10=238|
[2026-04-28 01:45:00] [DEBUG] [FROM ADMIN] 8=FIX.4.4|9=81|35=0|34=8|49=SERVER|52=20260428-01:45:00.325|56=cf030e89c06043adbcd53a5b240a8910|10=088|
[2026-04-28 01:45:29] [DEBUG] [TO ADMIN] 8=FIX.4.4|9=100|35=0|34=9|49=cf030e89c06043adbcd53a5b240a8910|52=20260428-01:45:29.007|56=SERVER|1=main|553=Group07|10=236|
[2026-04-28 01:45:30] [DEBUG] [FROM ADMIN] 8=FIX.4.4|9=81|35=0|34=9|49=SERVER|52=20260428-01:45:30.325|56=cf030e89c06043adbcd53a5b240a8910|10=092|
[2026-04-28 01:45:59] [DEBUG] [TO ADMIN] 8=FIX.4.4|9=101|35=0|34=10|49=cf030e89c06043adbcd53a5b240a8910|52=20260428-01:45:59.150|56=SERVER|1=main|553=Group07|10=023|
[2026-04-28 01:46:00] [DEBUG] [FROM ADMIN] 8=FIX.4.4|9=82|35=0|34=10|49=SERVER|52=20260428-01:46:00.325|56=cf030e89c06043adbcd53a5b240a8910|10=131|
[2026-04-28 01:46:29] [DEBUG] [TO ADMIN] 8=FIX.4.4|9=101|35=0|34=11|49=cf030e89c06043adbcd53a5b240a8910|52=20260428-01:46:29.244|56=SERVER|1=main|553=Group07|10=026|
[2026-04-28 01:46:30] [DEBUG] [FROM ADMIN] 8=FIX.4.4|9=82|35=0|34=11|49=SERVER|52=20260428-01:46:30.325|56=cf030e89c06043adbcd53a5b240a8910|10=135|
[2026-04-28 01:46:59] [DEBUG] [TO ADMIN] 8=FIX.4.4|9=101|35=0|34=12|49=cf030e89c06043adbcd53a5b240a8910|52=20260428-01:46:59.394|56=SERVER|1=main|553=Group07|10=036|
[2026-04-28 01:47:00] [DEBUG] [FROM ADMIN] 8=FIX.4.4|9=82|35=0|34=12|49=SERVER|52=20260428-01:47:00.326|56=cf030e89c06043adbcd53a5b240a8910|10=135|
[2026-04-28 01:47:29] [DEBUG] [TO ADMIN] 8=FIX.4.4|9=101|35=0|34=13|49=cf030e89c06043adbcd53a5b240a8910|52=20260428-01:47:29.013|56=SERVER|1=main|553=Group07|10=023|
[2026-04-28 01:47:30] [DEBUG] [FROM ADMIN] 8=FIX.4.4|9=82|35=0|34=13|49=SERVER|52=20260428-01:47:30.325|56=cf030e89c06043adbcd53a5b240a8910|10=138|
[2026-04-28 01:47:59] [DEBUG] [TO ADMIN] 8=FIX.4.4|9=101|35=0|34=14|49=cf030e89c06043adbcd53a5b240a8910|52=20260428-01:47:59.411|56=SERVER|1=main|553=Group07|10=029|
[2026-04-28 01:48:00] [DEBUG] [FROM ADMIN] 8=FIX.4.4|9=82|35=0|34=14|49=SERVER|52=20260428-01:48:00.325|56=cf030e89c06043adbcd53a5b240a8910|10=137|
[2026-04-28 01:48:29] [DEBUG] [TO ADMIN] 8=FIX.4.4|9=101|35=0|34=15|49=cf030e89c06043adbcd53a5b240a8910|52=20260428-01:48:29.347|56=SERVER|1=main|553=Group07|10=036|
[2026-04-28 01:48:30] [DEBUG] [FROM ADMIN] 8=FIX.4.4|9=82|35=0|34=15|49=SERVER|52=20260428-01:48:30.325|56=cf030e89c06043adbcd53a5b240a8910|10=141|
[2026-04-28 01:48:59] [DEBUG] [TO ADMIN] 8=FIX.4.4|9=101|35=0|34=16|49=cf030e89c06043adbcd53a5b240a8910|52=20260428-01:48:59.246|56=SERVER|1=main|553=Group07|10=038|
[2026-04-28 01:49:00] [DEBUG] [FROM ADMIN] 8=FIX.4.4|9=82|35=0|34=16|49=SERVER|52=20260428-01:49:00.325|56=cf030e89c06043adbcd53a5b240a8910|10=140|
[2026-04-28 01:49:29] [DEBUG] [TO ADMIN] 8=FIX.4.4|9=101|35=0|34=17|49=cf030e89c06043adbcd53a5b240a8910|52=20260428-01:49:29.234|56=SERVER|1=main|553=Group07|10=034|
[2026-04-28 01:49:30] [DEBUG] [FROM ADMIN] 8=FIX.4.4|9=82|35=0|34=17|49=SERVER|52=20260428-01:49:30.325|56=cf030e89c06043adbcd53a5b240a8910|10=144|
[2026-04-28 01:49:59] [DEBUG] [TO ADMIN] 8=FIX.4.4|9=101|35=0|34=18|49=cf030e89c06043adbcd53a5b240a8910|52=20260428-01:49:59.172|56=SERVER|1=main|553=Group07|10=039|
[2026-04-28 01:50:00] [DEBUG] [FROM ADMIN] 8=FIX.4.4|9=82|35=0|34=18|49=SERVER|52=20260428-01:50:00.325|56=cf030e89c06043adbcd53a5b240a8910|10=134|
[2026-04-28 01:50:29] [DEBUG] [TO ADMIN] 8=FIX.4.4|9=101|35=0|34=19|49=cf030e89c06043adbcd53a5b240a8910|52=20260428-01:50:29.198|56=SERVER|1=main|553=Group07|10=037|
[2026-04-28 01:50:30] [DEBUG] [FROM ADMIN] 8=FIX.4.4|9=82|35=0|34=19|49=SERVER|52=20260428-01:50:30.325|56=cf030e89c06043adbcd53a5b240a8910|10=138|
[2026-04-28 01:50:59] [DEBUG] [TO ADMIN] 8=FIX.4.4|9=101|35=0|34=20|49=cf030e89c06043adbcd53a5b240a8910|52=20260428-01:50:59.078|56=SERVER|1=main|553=Group07|10=029|
[2026-04-28 01:51:00] [DEBUG] [FROM ADMIN] 8=FIX.4.4|9=82|35=0|34=20|49=SERVER|52=20260428-01:51:00.325|56=cf030e89c06043adbcd53a5b240a8910|10=128|
[2026-04-28 01:51:29] [DEBUG] [TO ADMIN] 8=FIX.4.4|9=101|35=0|34=21|49=cf030e89c06043adbcd53a5b240a8910|52=20260428-01:51:29.016|56=SERVER|1=main|553=Group07|10=020|
[2026-04-28 01:51:30] [DEBUG] [FROM ADMIN] 8=FIX.4.4|9=82|35=0|34=21|49=SERVER|52=20260428-01:51:30.326|56=cf030e89c06043adbcd53a5b240a8910|10=133|
[2026-04-28 01:51:59] [DEBUG] [TO ADMIN] 8=FIX.4.4|9=101|35=0|34=22|49=cf030e89c06043adbcd53a5b240a8910|52=20260428-01:51:59.886|56=SERVER|1=main|553=Group07|10=039|
[2026-04-28 01:52:00] [DEBUG] [FROM ADMIN] 8=FIX.4.4|9=82|35=0|34=22|49=SERVER|52=20260428-01:52:00.326|56=cf030e89c06043adbcd53a5b240a8910|10=132|
[2026-04-28 01:52:29] [DEBUG] [TO ADMIN] 8=FIX.4.4|9=101|35=0|34=23|49=cf030e89c06043adbcd53a5b240a8910|52=20260428-01:52:29.048|56=SERVER|1=main|553=Group07|10=028|
[2026-04-28 01:52:30] [DEBUG] [FROM ADMIN] 8=FIX.4.4|9=82|35=0|34=23|49=SERVER|52=20260428-01:52:30.325|56=cf030e89c06043adbcd53a5b240a8910|10=135|
[2026-04-28 01:52:59] [DEBUG] [TO ADMIN] 8=FIX.4.4|9=101|35=0|34=24|49=cf030e89c06043adbcd53a5b240a8910|52=20260428-01:52:59.091|56=SERVER|1=main|553=Group07|10=030|
[2026-04-28 01:53:00] [DEBUG] [FROM ADMIN] 8=FIX.4.4|9=82|35=0|34=24|49=SERVER|52=20260428-01:53:00.326|56=cf030e89c06043adbcd53a5b240a8910|10=135|
[2026-04-28 01:53:29] [DEBUG] [TO ADMIN] 8=FIX.4.4|9=101|35=0|34=25|49=cf030e89c06043adbcd53a5b240a8910|52=20260428-01:53:29.303|56=SERVER|1=main|553=Group07|10=025|
[2026-04-28 01:53:30] [DEBUG] [FROM ADMIN] 8=FIX.4.4|9=82|35=0|34=25|49=SERVER|52=20260428-01:53:30.325|56=cf030e89c06043adbcd53a5b240a8910|10=138|
[2026-04-28 01:53:59] [DEBUG] [TO ADMIN] 8=FIX.4.4|9=101|35=0|34=26|49=cf030e89c06043adbcd53a5b240a8910|52=20260428-01:53:59.320|56=SERVER|1=main|553=Group07|10=028|
[2026-04-28 01:54:00] [DEBUG] [FROM ADMIN] 8=FIX.4.4|9=82|35=0|34=26|49=SERVER|52=20260428-01:54:00.326|56=cf030e89c06043adbcd53a5b240a8910|10=138|
[2026-04-28 01:54:29] [DEBUG] [TO ADMIN] 8=FIX.4.4|9=101|35=0|34=27|49=cf030e89c06043adbcd53a5b240a8910|52=20260428-01:54:29.083|56=SERVER|1=main|553=Group07|10=033|
[2026-04-28 01:54:30] [DEBUG] [FROM ADMIN] 8=FIX.4.4|9=82|35=0|34=27|49=SERVER|52=20260428-01:54:30.325|56=cf030e89c06043adbcd53a5b240a8910|10=141|
[2026-04-28 01:54:59] [DEBUG] [TO ADMIN] 8=FIX.4.4|9=101|35=0|34=28|49=cf030e89c06043adbcd53a5b240a8910|52=20260428-01:54:59.339|56=SERVER|1=main|553=Group07|10=041|
[2026-04-28 01:55:00] [DEBUG] [FROM ADMIN] 8=FIX.4.4|9=82|35=0|34=28|49=SERVER|52=20260428-01:55:00.325|56=cf030e89c06043adbcd53a5b240a8910|10=140|
[2026-04-28 01:55:29] [DEBUG] [TO ADMIN] 8=FIX.4.4|9=101|35=0|34=29|49=cf030e89c06043adbcd53a5b240a8910|52=20260428-01:55:29.097|56=SERVER|1=main|553=Group07|10=041|
[2026-04-28 01:55:30] [DEBUG] [FROM ADMIN] 8=FIX.4.4|9=82|35=0|34=29|49=SERVER|52=20260428-01:55:30.325|56=cf030e89c06043adbcd53a5b240a8910|10=144|
[2026-04-28 01:55:59] [DEBUG] [TO ADMIN] 8=FIX.4.4|9=101|35=0|34=30|49=cf030e89c06043adbcd53a5b240a8910|52=20260428-01:55:59.194|56=SERVER|1=main|553=Group07|10=034|
[2026-04-28 01:56:00] [DEBUG] [FROM ADMIN] 8=FIX.4.4|9=82|35=0|34=30|49=SERVER|52=20260428-01:56:00.325|56=cf030e89c06043adbcd53a5b240a8910|10=134|
[2026-04-28 01:56:29] [DEBUG] [TO ADMIN] 8=FIX.4.4|9=101|35=0|34=31|49=cf030e89c06043adbcd53a5b240a8910|52=20260428-01:56:29.118|56=SERVER|1=main|553=Group07|10=029|
[2026-04-28 01:56:30] [DEBUG] [FROM ADMIN] 8=FIX.4.4|9=82|35=0|34=31|49=SERVER|52=20260428-01:56:30.325|56=cf030e89c06043adbcd53a5b240a8910|10=138|
[2026-04-28 01:56:59] [DEBUG] [TO ADMIN] 8=FIX.4.4|9=101|35=0|34=32|49=cf030e89c06043adbcd53a5b240a8910|52=20260428-01:56:59.220|56=SERVER|1=main|553=Group07|10=027|
[2026-04-28 01:57:00] [DEBUG] [FROM ADMIN] 8=FIX.4.4|9=82|35=0|34=32|49=SERVER|52=20260428-01:57:00.325|56=cf030e89c06043adbcd53a5b240a8910|10=137|
[2026-04-28 01:57:29] [DEBUG] [TO ADMIN] 8=FIX.4.4|9=101|35=0|34=33|49=cf030e89c06043adbcd53a5b240a8910|52=20260428-01:57:29.064|56=SERVER|1=main|553=Group07|10=032|
[2026-04-28 01:57:30] [DEBUG] [FROM ADMIN] 8=FIX.4.4|9=82|35=0|34=33|49=SERVER|52=20260428-01:57:30.325|56=cf030e89c06043adbcd53a5b240a8910|10=141|
[2026-04-28 01:57:59] [DEBUG] [TO ADMIN] 8=FIX.4.4|9=101|35=0|34=34|49=cf030e89c06043adbcd53a5b240a8910|52=20260428-01:57:59.148|56=SERVER|1=main|553=Group07|10=039|
[2026-04-28 01:58:00] [DEBUG] [FROM ADMIN] 8=FIX.4.4|9=82|35=0|34=34|49=SERVER|52=20260428-01:58:00.325|56=cf030e89c06043adbcd53a5b240a8910|10=140|
[2026-04-28 01:58:29] [DEBUG] [TO ADMIN] 8=FIX.4.4|9=101|35=0|34=35|49=cf030e89c06043adbcd53a5b240a8910|52=20260428-01:58:29.057|56=SERVER|1=main|553=Group07|10=037|
[2026-04-28 01:58:30] [DEBUG] [FROM ADMIN] 8=FIX.4.4|9=82|35=0|34=35|49=SERVER|52=20260428-01:58:30.326|56=cf030e89c06043adbcd53a5b240a8910|10=145|
[2026-04-28 01:58:59] [DEBUG] [TO ADMIN] 8=FIX.4.4|9=101|35=0|34=36|49=cf030e89c06043adbcd53a5b240a8910|52=20260428-01:58:59.610|56=SERVER|1=main|553=Group07|10=036|
[2026-04-28 01:59:00] [DEBUG] [FROM ADMIN] 8=FIX.4.4|9=82|35=0|34=36|49=SERVER|52=20260428-01:59:00.325|56=cf030e89c06043adbcd53a5b240a8910|10=143|
[2026-04-28 01:59:29] [DEBUG] [TO ADMIN] 8=FIX.4.4|9=101|35=0|34=37|49=cf030e89c06043adbcd53a5b240a8910|52=20260428-01:59:29.107|56=SERVER|1=main|553=Group07|10=036|
[2026-04-28 01:59:30] [DEBUG] [FROM ADMIN] 8=FIX.4.4|9=82|35=0|34=37|49=SERVER|52=20260428-01:59:30.325|56=cf030e89c06043adbcd53a5b240a8910|10=147|
[2026-04-28 01:59:59] [DEBUG] [TO ADMIN] 8=FIX.4.4|9=101|35=0|34=38|49=cf030e89c06043adbcd53a5b240a8910|52=20260428-01:59:59.279|56=SERVER|1=main|553=Group07|10=050|
[2026-04-28 02:00:00] [DEBUG] [FROM ADMIN] 8=FIX.4.4|9=82|35=0|34=38|49=SERVER|52=20260428-02:00:00.325|56=cf030e89c06043adbcd53a5b240a8910|10=132|
[2026-04-28 02:00:29] [DEBUG] [TO ADMIN] 8=FIX.4.4|9=101|35=0|34=39|49=cf030e89c06043adbcd53a5b240a8910|52=20260428-02:00:29.012|56=SERVER|1=main|553=Group07|10=020|
[2026-04-28 02:00:30] [DEBUG] [FROM ADMIN] 8=FIX.4.4|9=82|35=0|34=39|49=SERVER|52=20260428-02:00:30.326|56=cf030e89c06043adbcd53a5b240a8910|10=137|
[2026-04-28 02:00:59] [DEBUG] [TO ADMIN] 8=FIX.4.4|9=101|35=0|34=40|49=cf030e89c06043adbcd53a5b240a8910|52=20260428-02:00:59.320|56=SERVER|1=main|553=Group07|10=017|
[2026-04-28 02:01:00] [DEBUG] [FROM ADMIN] 8=FIX.4.4|9=82|35=0|34=40|49=SERVER|52=20260428-02:01:00.325|56=cf030e89c06043adbcd53a5b240a8910|10=126|
[2026-04-28 02:01:29] [DEBUG] [TO ADMIN] 8=FIX.4.4|9=101|35=0|34=41|49=cf030e89c06043adbcd53a5b240a8910|52=20260428-02:01:29.022|56=SERVER|1=main|553=Group07|10=015|
[2026-04-28 02:01:30] [DEBUG] [FROM ADMIN] 8=FIX.4.4|9=82|35=0|34=41|49=SERVER|52=20260428-02:01:30.325|56=cf030e89c06043adbcd53a5b240a8910|10=130|
[2026-04-28 02:01:59] [DEBUG] [TO ADMIN] 8=FIX.4.4|9=101|35=0|34=42|49=cf030e89c06043adbcd53a5b240a8910|52=20260428-02:01:59.023|56=SERVER|1=main|553=Group07|10=020|
[2026-04-28 02:02:00] [DEBUG] [FROM ADMIN] 8=FIX.4.4|9=82|35=0|34=42|49=SERVER|52=20260428-02:02:00.326|56=cf030e89c06043adbcd53a5b240a8910|10=130|
[2026-04-28 02:02:29] [DEBUG] [TO ADMIN] 8=FIX.4.4|9=101|35=0|34=43|49=cf030e89c06043adbcd53a5b240a8910|52=20260428-02:02:29.429|56=SERVER|1=main|553=Group07|10=029|
[2026-04-28 02:02:30] [DEBUG] [FROM ADMIN] 8=FIX.4.4|9=82|35=0|34=43|49=SERVER|52=20260428-02:02:30.325|56=cf030e89c06043adbcd53a5b240a8910|10=133|
[2026-04-28 02:02:59] [DEBUG] [TO ADMIN] 8=FIX.4.4|9=101|35=0|34=44|49=cf030e89c06043adbcd53a5b240a8910|52=20260428-02:02:59.428|56=SERVER|1=main|553=Group07|10=032|
[2026-04-28 02:03:00] [DEBUG] [FROM ADMIN] 8=FIX.4.4|9=82|35=0|34=44|49=SERVER|52=20260428-02:03:00.326|56=cf030e89c06043adbcd53a5b240a8910|10=133|
[2026-04-28 02:03:29] [DEBUG] [TO ADMIN] 8=FIX.4.4|9=101|35=0|34=45|49=cf030e89c06043adbcd53a5b240a8910|52=20260428-02:03:29.101|56=SERVER|1=main|553=Group07|10=019|
[2026-04-28 02:03:30] [DEBUG] [FROM ADMIN] 8=FIX.4.4|9=82|35=0|34=45|49=SERVER|52=20260428-02:03:30.326|56=cf030e89c06043adbcd53a5b240a8910|10=137|
[2026-04-28 02:03:59] [DEBUG] [TO ADMIN] 8=FIX.4.4|9=101|35=0|34=46|49=cf030e89c06043adbcd53a5b240a8910|52=20260428-02:03:59.032|56=SERVER|1=main|553=Group07|10=026|
[2026-04-28 02:04:00] [DEBUG] [FROM ADMIN] 8=FIX.4.4|9=82|35=0|34=46|49=SERVER|52=20260428-02:04:00.325|56=cf030e89c06043adbcd53a5b240a8910|10=135|
[2026-04-28 02:04:29] [DEBUG] [TO ADMIN] 8=FIX.4.4|9=101|35=0|34=47|49=cf030e89c06043adbcd53a5b240a8910|52=20260428-02:04:29.031|56=SERVER|1=main|553=Group07|10=024|
[2026-04-28 02:04:30] [DEBUG] [FROM ADMIN] 8=FIX.4.4|9=82|35=0|34=47|49=SERVER|52=20260428-02:04:30.326|56=cf030e89c06043adbcd53a5b240a8910|10=140|
[2026-04-28 02:04:59] [DEBUG] [TO ADMIN] 8=FIX.4.4|9=101|35=0|34=48|49=cf030e89c06043adbcd53a5b240a8910|52=20260428-02:04:59.253|56=SERVER|1=main|553=Group07|10=034|
[2026-04-28 02:05:00] [DEBUG] [FROM ADMIN] 8=FIX.4.4|9=82|35=0|34=48|49=SERVER|52=20260428-02:05:00.325|56=cf030e89c06043adbcd53a5b240a8910|10=138|
[2026-04-28 02:05:29] [DEBUG] [TO ADMIN] 8=FIX.4.4|9=101|35=0|34=49|49=cf030e89c06043adbcd53a5b240a8910|52=20260428-02:05:29.008|56=SERVER|1=main|553=Group07|10=031|
[2026-04-28 02:05:30] [DEBUG] [FROM ADMIN] 8=FIX.4.4|9=82|35=0|34=49|49=SERVER|52=20260428-02:05:30.325|56=cf030e89c06043adbcd53a5b240a8910|10=142|
[2026-04-28 02:05:59] [DEBUG] [TO ADMIN] 8=FIX.4.4|9=101|35=0|34=50|49=cf030e89c06043adbcd53a5b240a8910|52=20260428-02:05:59.021|56=SERVER|1=main|553=Group07|10=021|
[2026-04-28 02:06:00] [DEBUG] [FROM ADMIN] 8=FIX.4.4|9=82|35=0|34=50|49=SERVER|52=20260428-02:06:00.327|56=cf030e89c06043adbcd53a5b240a8910|10=134|
[2026-04-28 02:06:29] [DEBUG] [TO ADMIN] 8=FIX.4.4|9=101|35=0|34=51|49=cf030e89c06043adbcd53a5b240a8910|52=20260428-02:06:29.300|56=SERVER|1=main|553=Group07|10=020|
[2026-04-28 02:06:30] [DEBUG] [FROM ADMIN] 8=FIX.4.4|9=82|35=0|34=51|49=SERVER|52=20260428-02:06:30.325|56=cf030e89c06043adbcd53a5b240a8910|10=136|
[2026-04-28 02:06:59] [DEBUG] [TO ADMIN] 8=FIX.4.4|9=101|35=0|34=52|49=cf030e89c06043adbcd53a5b240a8910|52=20260428-02:06:59.052|56=SERVER|1=main|553=Group07|10=028|
[2026-04-28 02:07:00] [DEBUG] [FROM ADMIN] 8=FIX.4.4|9=82|35=0|34=52|49=SERVER|52=20260428-02:07:00.325|56=cf030e89c06043adbcd53a5b240a8910|10=135|
[2026-04-28 02:07:29] [DEBUG] [TO ADMIN] 8=FIX.4.4|9=101|35=0|34=53|49=cf030e89c06043adbcd53a5b240a8910|52=20260428-02:07:29.012|56=SERVER|1=main|553=Group07|10=023|
[2026-04-28 02:07:30] [DEBUG] [FROM ADMIN] 8=FIX.4.4|9=82|35=0|34=53|49=SERVER|52=20260428-02:07:30.325|56=cf030e89c06043adbcd53a5b240a8910|10=139|
[2026-04-28 02:07:59] [DEBUG] [TO ADMIN] 8=FIX.4.4|9=101|35=0|34=54|49=cf030e89c06043adbcd53a5b240a8910|52=20260428-02:07:59.565|56=SERVER|1=main|553=Group07|10=040|
[2026-04-28 02:08:00] [DEBUG] [FROM ADMIN] 8=FIX.4.4|9=82|35=0|34=54|49=SERVER|52=20260428-02:08:00.325|56=cf030e89c06043adbcd53a5b240a8910|10=138|
[2026-04-28 02:08:29] [DEBUG] [TO ADMIN] 8=FIX.4.4|9=101|35=0|34=55|49=cf030e89c06043adbcd53a5b240a8910|52=20260428-02:08:29.268|56=SERVER|1=main|553=Group07|10=039|
[2026-04-28 02:08:30] [DEBUG] [FROM ADMIN] 8=FIX.4.4|9=82|35=0|34=55|49=SERVER|52=20260428-02:08:30.326|56=cf030e89c06043adbcd53a5b240a8910|10=143|
[2026-04-28 02:08:59] [DEBUG] [TO ADMIN] 8=FIX.4.4|9=101|35=0|34=56|49=cf030e89c06043adbcd53a5b240a8910|52=20260428-02:08:59.153|56=SERVER|1=main|553=Group07|10=036|
[2026-04-28 02:09:00] [DEBUG] [FROM ADMIN] 8=FIX.4.4|9=82|35=0|34=56|49=SERVER|52=20260428-02:09:00.326|56=cf030e89c06043adbcd53a5b240a8910|10=142|
[2026-04-28 02:09:29] [DEBUG] [TO ADMIN] 8=FIX.4.4|9=101|35=0|34=57|49=cf030e89c06043adbcd53a5b240a8910|52=20260428-02:09:29.154|56=SERVER|1=main|553=Group07|10=036|
[2026-04-28 02:09:30] [DEBUG] [FROM ADMIN] 8=FIX.4.4|9=82|35=0|34=57|49=SERVER|52=20260428-02:09:30.325|56=cf030e89c06043adbcd53a5b240a8910|10=145|
[2026-04-28 02:09:59] [DEBUG] [TO ADMIN] 8=FIX.4.4|9=101|35=0|34=58|49=cf030e89c06043adbcd53a5b240a8910|52=20260428-02:09:59.050|56=SERVER|1=main|553=Group07|10=035|
[2026-04-28 02:10:00] [DEBUG] [FROM ADMIN] 8=FIX.4.4|9=82|35=0|34=58|49=SERVER|52=20260428-02:10:00.326|56=cf030e89c06043adbcd53a5b240a8910|10=136|
[2026-04-28 02:10:29] [DEBUG] [TO ADMIN] 8=FIX.4.4|9=101|35=0|34=59|49=cf030e89c06043adbcd53a5b240a8910|52=20260428-02:10:29.215|56=SERVER|1=main|553=Group07|10=028|
[2026-04-28 02:10:30] [DEBUG] [FROM ADMIN] 8=FIX.4.4|9=82|35=0|34=59|49=SERVER|52=20260428-02:10:30.326|56=cf030e89c06043adbcd53a5b240a8910|10=140|
[2026-04-28 02:10:59] [DEBUG] [TO ADMIN] 8=FIX.4.4|9=101|35=0|34=60|49=cf030e89c06043adbcd53a5b240a8910|52=20260428-02:10:59.048|56=SERVER|1=main|553=Group07|10=027|
[2026-04-28 02:11:00] [DEBUG] [FROM ADMIN] 8=FIX.4.4|9=82|35=0|34=60|49=SERVER|52=20260428-02:11:00.325|56=cf030e89c06043adbcd53a5b240a8910|10=129|
[2026-04-28 02:11:29] [DEBUG] [TO ADMIN] 8=FIX.4.4|9=101|35=0|34=61|49=cf030e89c06043adbcd53a5b240a8910|52=20260428-02:11:29.775|56=SERVER|1=main|553=Group07|10=033|
[2026-04-28 02:11:30] [DEBUG] [FROM ADMIN] 8=FIX.4.4|9=82|35=0|34=61|49=SERVER|52=20260428-02:11:30.326|56=cf030e89c06043adbcd53a5b240a8910|10=134|
[2026-04-28 02:11:59] [DEBUG] [TO ADMIN] 8=FIX.4.4|9=101|35=0|34=62|49=cf030e89c06043adbcd53a5b240a8910|52=20260428-02:11:59.703|56=SERVER|1=main|553=Group07|10=028|
[2026-04-28 02:12:00] [DEBUG] [FROM ADMIN] 8=FIX.4.4|9=82|35=0|34=62|49=SERVER|52=20260428-02:12:00.326|56=cf030e89c06043adbcd53a5b240a8910|10=133|
[2026-04-28 02:12:29] [DEBUG] [TO ADMIN] 8=FIX.4.4|9=101|35=0|34=63|49=cf030e89c06043adbcd53a5b240a8910|52=20260428-02:12:29.519|56=SERVER|1=main|553=Group07|10=032|
[2026-04-28 02:12:30] [DEBUG] [FROM ADMIN] 8=FIX.4.4|9=82|35=0|34=63|49=SERVER|52=20260428-02:12:30.325|56=cf030e89c06043adbcd53a5b240a8910|10=136|
[2026-04-28 02:12:59] [DEBUG] [TO ADMIN] 8=FIX.4.4|9=101|35=0|34=64|49=cf030e89c06043adbcd53a5b240a8910|52=20260428-02:12:59.561|56=SERVER|1=main|553=Group07|10=033|
[2026-04-28 02:13:00] [DEBUG] [FROM ADMIN] 8=FIX.4.4|9=82|35=0|34=64|49=SERVER|52=20260428-02:13:00.325|56=cf030e89c06043adbcd53a5b240a8910|10=135|
[2026-04-28 02:13:29] [DEBUG] [TO ADMIN] 8=FIX.4.4|9=101|35=0|34=65|49=cf030e89c06043adbcd53a5b240a8910|52=20260428-02:13:29.182|56=SERVER|1=main|553=Group07|10=031|
[2026-04-28 02:13:30] [DEBUG] [FROM ADMIN] 8=FIX.4.4|9=82|35=0|34=65|49=SERVER|52=20260428-02:13:30.326|56=cf030e89c06043adbcd53a5b240a8910|10=140|
[2026-04-28 02:13:59] [DEBUG] [TO ADMIN] 8=FIX.4.4|9=101|35=0|34=66|49=cf030e89c06043adbcd53a5b240a8910|52=20260428-02:13:59.402|56=SERVER|1=main|553=Group07|10=030|
[2026-04-28 02:14:00] [DEBUG] [FROM ADMIN] 8=FIX.4.4|9=82|35=0|34=66|49=SERVER|52=20260428-02:14:00.326|56=cf030e89c06043adbcd53a5b240a8910|10=139|
[2026-04-28 02:14:29] [DEBUG] [TO ADMIN] 8=FIX.4.4|9=101|35=0|34=67|49=cf030e89c06043adbcd53a5b240a8910|52=20260428-02:14:29.368|56=SERVER|1=main|553=Group07|10=040|
[2026-04-28 02:14:30] [DEBUG] [FROM ADMIN] 8=FIX.4.4|9=82|35=0|34=67|49=SERVER|52=20260428-02:14:30.326|56=cf030e89c06043adbcd53a5b240a8910|10=143|
[2026-04-28 02:14:59] [DEBUG] [TO ADMIN] 8=FIX.4.4|9=101|35=0|34=68|49=cf030e89c06043adbcd53a5b240a8910|52=20260428-02:14:59.027|56=SERVER|1=main|553=Group07|10=036|
[2026-04-28 02:15:00] [DEBUG] [FROM ADMIN] 8=FIX.4.4|9=82|35=0|34=68|49=SERVER|52=20260428-02:15:00.326|56=cf030e89c06043adbcd53a5b240a8910|10=142|
[2026-04-28 02:15:29] [DEBUG] [TO ADMIN] 8=FIX.4.4|9=101|35=0|34=69|49=cf030e89c06043adbcd53a5b240a8910|52=20260428-02:15:29.529|56=SERVER|1=main|553=Group07|10=042|
[2026-04-28 02:15:30] [DEBUG] [FROM ADMIN] 8=FIX.4.4|9=82|35=0|34=69|49=SERVER|52=20260428-02:15:30.326|56=cf030e89c06043adbcd53a5b240a8910|10=146|
[2026-04-28 02:15:59] [DEBUG] [TO ADMIN] 8=FIX.4.4|9=101|35=0|34=70|49=cf030e89c06043adbcd53a5b240a8910|52=20260428-02:15:59.505|56=SERVER|1=main|553=Group07|10=031|
[2026-04-28 02:16:00] [DEBUG] [FROM ADMIN] 8=FIX.4.4|9=82|35=0|34=70|49=SERVER|52=20260428-02:16:00.326|56=cf030e89c06043adbcd53a5b240a8910|10=136|
[2026-04-28 02:16:29] [DEBUG] [TO ADMIN] 8=FIX.4.4|9=101|35=0|34=71|49=cf030e89c06043adbcd53a5b240a8910|52=20260428-02:16:29.029|56=SERVER|1=main|553=Group07|10=031|
[2026-04-28 02:16:30] [DEBUG] [FROM ADMIN] 8=FIX.4.4|9=82|35=0|34=71|49=SERVER|52=20260428-02:16:30.325|56=cf030e89c06043adbcd53a5b240a8910|10=139|
[2026-04-28 02:16:59] [DEBUG] [TO ADMIN] 8=FIX.4.4|9=101|35=0|34=72|49=cf030e89c06043adbcd53a5b240a8910|52=20260428-02:16:59.381|56=SERVER|1=main|553=Group07|10=036|
[2026-04-28 02:17:00] [DEBUG] [FROM ADMIN] 8=FIX.4.4|9=82|35=0|34=72|49=SERVER|52=20260428-02:17:00.326|56=cf030e89c06043adbcd53a5b240a8910|10=139|
[2026-04-28 02:17:29] [DEBUG] [TO ADMIN] 8=FIX.4.4|9=101|35=0|34=73|49=cf030e89c06043adbcd53a5b240a8910|52=20260428-02:17:29.252|56=SERVER|1=main|553=Group07|10=032|
[2026-04-28 02:17:30] [DEBUG] [FROM ADMIN] 8=FIX.4.4|9=82|35=0|34=73|49=SERVER|52=20260428-02:17:30.326|56=cf030e89c06043adbcd53a5b240a8910|10=143|
[2026-04-28 02:17:59] [DEBUG] [TO ADMIN] 8=FIX.4.4|9=101|35=0|34=74|49=cf030e89c06043adbcd53a5b240a8910|52=20260428-02:17:59.443|56=SERVER|1=main|553=Group07|10=038|
[2026-04-28 02:18:00] [DEBUG] [FROM ADMIN] 8=FIX.4.4|9=82|35=0|34=74|49=SERVER|52=20260428-02:18:00.325|56=cf030e89c06043adbcd53a5b240a8910|10=141|
[2026-04-28 02:18:29] [DEBUG] [TO ADMIN] 8=FIX.4.4|9=101|35=0|34=75|49=cf030e89c06043adbcd53a5b240a8910|52=20260428-02:18:29.082|56=SERVER|1=main|553=Group07|10=036|
[2026-04-28 02:18:30] [DEBUG] [FROM ADMIN] 8=FIX.4.4|9=82|35=0|34=75|49=SERVER|52=20260428-02:18:30.325|56=cf030e89c06043adbcd53a5b240a8910|10=145|
[2026-04-28 02:18:59] [DEBUG] [TO ADMIN] 8=FIX.4.4|9=101|35=0|34=76|49=cf030e89c06043adbcd53a5b240a8910|52=20260428-02:18:59.372|56=SERVER|1=main|553=Group07|10=042|
[2026-04-28 02:19:00] [DEBUG] [FROM ADMIN] 8=FIX.4.4|9=82|35=0|34=76|49=SERVER|52=20260428-02:19:00.325|56=cf030e89c06043adbcd53a5b240a8910|10=144|
[2026-04-28 02:19:29] [DEBUG] [TO ADMIN] 8=FIX.4.4|9=101|35=0|34=77|49=cf030e89c06043adbcd53a5b240a8910|52=20260428-02:19:29.404|56=SERVER|1=main|553=Group07|10=037|
[2026-04-28 02:19:30] [DEBUG] [FROM ADMIN] 8=FIX.4.4|9=82|35=0|34=77|49=SERVER|52=20260428-02:19:30.325|56=cf030e89c06043adbcd53a5b240a8910|10=148|
[2026-04-28 02:19:59] [DEBUG] [TO ADMIN] 8=FIX.4.4|9=101|35=0|34=78|49=cf030e89c06043adbcd53a5b240a8910|52=20260428-02:19:59.374|56=SERVER|1=main|553=Group07|10=047|
[2026-04-28 02:20:00] [DEBUG] [FROM ADMIN] 8=FIX.4.4|9=82|35=0|34=78|49=SERVER|52=20260428-02:20:00.326|56=cf030e89c06043adbcd53a5b240a8910|10=139|
[2026-04-28 02:20:29] [DEBUG] [TO ADMIN] 8=FIX.4.4|9=101|35=0|34=79|49=cf030e89c06043adbcd53a5b240a8910|52=20260428-02:20:29.283|56=SERVER|1=main|553=Group07|10=036|
[2026-04-28 02:20:30] [DEBUG] [FROM ADMIN] 8=FIX.4.4|9=82|35=0|34=79|49=SERVER|52=20260428-02:20:30.325|56=cf030e89c06043adbcd53a5b240a8910|10=142|
[2026-04-28 02:20:59] [DEBUG] [TO ADMIN] 8=FIX.4.4|9=101|35=0|34=80|49=cf030e89c06043adbcd53a5b240a8910|52=20260428-02:20:59.014|56=SERVER|1=main|553=Group07|10=023|
[2026-04-28 02:21:00] [DEBUG] [FROM ADMIN] 8=FIX.4.4|9=82|35=0|34=80|49=SERVER|52=20260428-02:21:00.325|56=cf030e89c06043adbcd53a5b240a8910|10=132|
[2026-04-28 02:21:29] [DEBUG] [TO ADMIN] 8=FIX.4.4|9=101|35=0|34=81|49=cf030e89c06043adbcd53a5b240a8910|52=20260428-02:21:29.103|56=SERVER|1=main|553=Group07|10=021|
[2026-04-28 02:21:30] [DEBUG] [FROM ADMIN] 8=FIX.4.4|9=82|35=0|34=81|49=SERVER|52=20260428-02:21:30.325|56=cf030e89c06043adbcd53a5b240a8910|10=136|
[2026-04-28 02:21:59] [DEBUG] [TO ADMIN] 8=FIX.4.4|9=101|35=0|34=82|49=cf030e89c06043adbcd53a5b240a8910|52=20260428-02:21:59.135|56=SERVER|1=main|553=Group07|10=030|
[2026-04-28 02:22:00] [DEBUG] [FROM ADMIN] 8=FIX.4.4|9=82|35=0|34=82|49=SERVER|52=20260428-02:22:00.326|56=cf030e89c06043adbcd53a5b240a8910|10=136|
[2026-04-28 02:22:29] [DEBUG] [TO ADMIN] 8=FIX.4.4|9=101|35=0|34=83|49=cf030e89c06043adbcd53a5b240a8910|52=20260428-02:22:29.006|56=SERVER|1=main|553=Group07|10=026|
[2026-04-28 02:22:30] [DEBUG] [FROM ADMIN] 8=FIX.4.4|9=82|35=0|34=83|49=SERVER|52=20260428-02:22:30.325|56=cf030e89c06043adbcd53a5b240a8910|10=139|
[2026-04-28 02:22:59] [DEBUG] [TO ADMIN] 8=FIX.4.4|9=101|35=0|34=84|49=cf030e89c06043adbcd53a5b240a8910|52=20260428-02:22:59.093|56=SERVER|1=main|553=Group07|10=036|
[2026-04-28 02:23:00] [DEBUG] [FROM ADMIN] 8=FIX.4.4|9=82|35=0|34=84|49=SERVER|52=20260428-02:23:00.325|56=cf030e89c06043adbcd53a5b240a8910|10=138|
[2026-04-28 02:23:29] [DEBUG] [TO ADMIN] 8=FIX.4.4|9=101|35=0|34=85|49=cf030e89c06043adbcd53a5b240a8910|52=20260428-02:23:29.056|56=SERVER|1=main|553=Group07|10=034|
[2026-04-28 02:23:30] [DEBUG] [FROM ADMIN] 8=FIX.4.4|9=82|35=0|34=85|49=SERVER|52=20260428-02:23:30.326|56=cf030e89c06043adbcd53a5b240a8910|10=143|
[2026-04-28 02:23:59] [DEBUG] [TO ADMIN] 8=FIX.4.4|9=101|35=0|34=86|49=cf030e89c06043adbcd53a5b240a8910|52=20260428-02:23:59.029|56=SERVER|1=main|553=Group07|10=038|
[2026-04-28 02:24:00] [DEBUG] [FROM ADMIN] 8=FIX.4.4|9=82|35=0|34=86|49=SERVER|52=20260428-02:24:00.325|56=cf030e89c06043adbcd53a5b240a8910|10=141|
[2026-04-28 02:24:05] [DEBUG] [TO ADMIN] 8=FIX.4.4|9=100|35=5|34=1|49=cf030e89c06043adbcd53a5b240a8910|52=20260428-02:24:05.055|56=SERVER|1=main|553=Group07|10=228|
[2026-04-28 02:24:05] [INFO] Session created: FIX.4.4:cf030e89c06043adbcd53a5b240a8910->SERVER
[2026-04-28 02:24:05] [DEBUG] FIXSessionManager initialized config=/tmp/paperbroker_r5n56r7t.cfg username=Group07
[2026-04-28 02:24:05] [DEBUG] RestSession initialized with base_url: https://papertrade.algotrade.vn/accounting
[2026-04-28 02:24:05] [DEBUG] Registered handler for event 'fix:logon'. Total handlers: 1
[2026-04-28 02:24:05] [DEBUG] Registered handler for event 'fix:order:filled'. Total handlers: 2
[2026-04-28 02:24:05] [DEBUG] Registered handler for event 'fix:order:rejected'. Total handlers: 3
[2026-04-28 02:24:05] [INFO] Starting FIX session...
[2026-04-28 02:24:05] [DEBUG] POST https://papertrade.algotrade.vn/accounting/api/fix-account-info/get-fix-id payload_keys=['username', 'password']
[2026-04-28 02:24:05] [DEBUG] [TO ADMIN] 8=FIX.4.4|9=135|35=A|34=1|49=cf030e89c06043adbcd53a5b240a8910|52=20260428-02:24:05.159|56=SERVER|1=main|98=0|108=30|141=Y|553=Group07|554=U13tC8z6H8tO|10=186|
[2026-04-28 02:24:05] [INFO] Logged out: FIX.4.4:cf030e89c06043adbcd53a5b240a8910->SERVER
[2026-04-28 02:24:05] [DEBUG] No handlers registered for event 'fix:logout'
[2026-04-28 02:24:05] [DEBUG] POST https://papertrade.algotrade.vn/accounting/api/fix-account-info/get-fix-id succeeded status_code=200
[2026-04-28 02:24:05] [INFO] event=fix_id_resolved username=Group07 fixAccountID=7aed94a94297406599ec7580013d9bb8
[2026-04-28 02:24:29] [DEBUG] [TO ADMIN] 8=FIX.4.4|9=101|35=0|34=87|49=cf030e89c06043adbcd53a5b240a8910|52=20260428-02:24:29.496|56=SERVER|1=main|553=Group07|10=045|
[2026-04-28 02:24:30] [DEBUG] [FROM ADMIN] 8=FIX.4.4|9=82|35=0|34=87|49=SERVER|52=20260428-02:24:30.325|56=cf030e89c06043adbcd53a5b240a8910|10=145|
[2026-04-28 02:24:35] [DEBUG] [TO ADMIN] 8=FIX.4.4|9=135|35=A|34=1|49=cf030e89c06043adbcd53a5b240a8910|52=20260428-02:24:35.470|56=SERVER|1=main|98=0|108=30|141=Y|553=Group07|554=U13tC8z6H8tO|10=185|
[2026-04-28 02:24:35] [INFO] Logged out: FIX.4.4:cf030e89c06043adbcd53a5b240a8910->SERVER
[2026-04-28 02:24:35] [DEBUG] No handlers registered for event 'fix:logout'
[2026-04-28 02:24:59] [DEBUG] [TO ADMIN] 8=FIX.4.4|9=101|35=0|34=88|49=cf030e89c06043adbcd53a5b240a8910|52=20260428-02:24:59.720|56=SERVER|1=main|553=Group07|10=039|
[2026-04-28 02:25:00] [DEBUG] [FROM ADMIN] 8=FIX.4.4|9=82|35=0|34=88|49=SERVER|52=20260428-02:25:00.325|56=cf030e89c06043adbcd53a5b240a8910|10=144|
[2026-04-28 02:25:05] [DEBUG] [TO ADMIN] 8=FIX.4.4|9=135|35=A|34=1|49=cf030e89c06043adbcd53a5b240a8910|52=20260428-02:25:05.942|56=SERVER|1=main|98=0|108=30|141=Y|553=Group07|554=U13tC8z6H8tO|10=187|
[2026-04-28 02:25:06] [INFO] Logged out: FIX.4.4:cf030e89c06043adbcd53a5b240a8910->SERVER
[2026-04-28 02:25:06] [DEBUG] No handlers registered for event 'fix:logout'
[2026-04-28 02:25:29] [DEBUG] [TO ADMIN] 8=FIX.4.4|9=101|35=0|34=89|49=cf030e89c06043adbcd53a5b240a8910|52=20260428-02:25:29.568|56=SERVER|1=main|553=Group07|10=048|
[2026-04-28 02:25:30] [DEBUG] [FROM ADMIN] 8=FIX.4.4|9=82|35=0|34=89|49=SERVER|52=20260428-02:25:30.325|56=cf030e89c06043adbcd53a5b240a8910|10=148|
[2026-04-28 02:25:35] [DEBUG] [TO ADMIN] 8=FIX.4.4|9=135|35=A|34=1|49=cf030e89c06043adbcd53a5b240a8910|52=20260428-02:25:35.783|56=SERVER|1=main|98=0|108=30|141=Y|553=Group07|554=U13tC8z6H8tO|10=193|
[2026-04-28 02:25:35] [INFO] Logged out: FIX.4.4:cf030e89c06043adbcd53a5b240a8910->SERVER
[2026-04-28 02:25:35] [DEBUG] No handlers registered for event 'fix:logout'
[2026-04-28 02:25:59] [DEBUG] [TO ADMIN] 8=FIX.4.4|9=101|35=0|34=90|49=cf030e89c06043adbcd53a5b240a8910|52=20260428-02:25:59.344|56=SERVER|1=main|553=Group07|10=035|
[2026-04-28 02:26:00] [DEBUG] [FROM ADMIN] 8=FIX.4.4|9=82|35=0|34=90|49=SERVER|52=20260428-02:26:00.325|56=cf030e89c06043adbcd53a5b240a8910|10=138|
[2026-04-28 02:26:29] [DEBUG] [TO ADMIN] 8=FIX.4.4|9=101|35=0|34=91|49=cf030e89c06043adbcd53a5b240a8910|52=20260428-02:26:29.054|56=SERVER|1=main|553=Group07|10=032|
[2026-04-28 02:26:30] [DEBUG] [FROM ADMIN] 8=FIX.4.4|9=82|35=0|34=91|49=SERVER|52=20260428-02:26:30.325|56=cf030e89c06043adbcd53a5b240a8910|10=142|
[2026-04-28 02:26:59] [DEBUG] [TO ADMIN] 8=FIX.4.4|9=101|35=0|34=92|49=cf030e89c06043adbcd53a5b240a8910|52=20260428-02:26:59.661|56=SERVER|1=main|553=Group07|10=040|
[2026-04-28 02:27:00] [DEBUG] [FROM ADMIN] 8=FIX.4.4|9=82|35=0|34=92|49=SERVER|52=20260428-02:27:00.326|56=cf030e89c06043adbcd53a5b240a8910|10=142|
[2026-04-28 02:27:29] [DEBUG] [TO ADMIN] 8=FIX.4.4|9=101|35=0|34=93|49=cf030e89c06043adbcd53a5b240a8910|52=20260428-02:27:29.124|56=SERVER|1=main|553=Group07|10=033|
[2026-04-28 02:27:30] [DEBUG] [FROM ADMIN] 8=FIX.4.4|9=82|35=0|34=93|49=SERVER|52=20260428-02:27:30.325|56=cf030e89c06043adbcd53a5b240a8910|10=145|
[2026-04-28 02:27:59] [DEBUG] [TO ADMIN] 8=FIX.4.4|9=101|35=0|34=94|49=cf030e89c06043adbcd53a5b240a8910|52=20260428-02:27:59.094|56=SERVER|1=main|553=Group07|10=043|
[2026-04-28 02:28:00] [DEBUG] [FROM ADMIN] 8=FIX.4.4|9=82|35=0|34=94|49=SERVER|52=20260428-02:28:00.326|56=cf030e89c06043adbcd53a5b240a8910|10=145|
[2026-04-28 02:28:29] [DEBUG] [TO ADMIN] 8=FIX.4.4|9=101|35=0|34=95|49=cf030e89c06043adbcd53a5b240a8910|52=20260428-02:28:29.693|56=SERVER|1=main|553=Group07|10=047|
[2026-04-28 02:28:30] [DEBUG] [FROM ADMIN] 8=FIX.4.4|9=82|35=0|34=95|49=SERVER|52=20260428-02:28:30.325|56=cf030e89c06043adbcd53a5b240a8910|10=148|
[2026-04-28 02:28:59] [DEBUG] [TO ADMIN] 8=FIX.4.4|9=101|35=0|34=96|49=cf030e89c06043adbcd53a5b240a8910|52=20260428-02:28:59.358|56=SERVER|1=main|553=Group07|10=049|
[2026-04-28 02:29:00] [DEBUG] [FROM ADMIN] 8=FIX.4.4|9=82|35=0|34=96|49=SERVER|52=20260428-02:29:00.325|56=cf030e89c06043adbcd53a5b240a8910|10=147|
[2026-04-28 02:29:29] [DEBUG] [TO ADMIN] 8=FIX.4.4|9=101|35=0|34=97|49=cf030e89c06043adbcd53a5b240a8910|52=20260428-02:29:29.332|56=SERVER|1=main|553=Group07|10=040|
[2026-04-28 02:29:30] [DEBUG] [FROM ADMIN] 8=FIX.4.4|9=82|35=0|34=97|49=SERVER|52=20260428-02:29:30.325|56=cf030e89c06043adbcd53a5b240a8910|10=151|
[2026-04-28 02:29:48] [INFO] Session created: FIX.4.4:cf030e89c06043adbcd53a5b240a8910->SERVER
[2026-04-28 02:29:48] [DEBUG] FIXSessionManager initialized config=/tmp/paperbroker_5ruubk_y.cfg username=Group07
[2026-04-28 02:29:48] [DEBUG] RestSession initialized with base_url: https://papertrade.algotrade.vn/accounting
[2026-04-28 02:29:48] [DEBUG] Registered handler for event 'fix:logon'. Total handlers: 1
[2026-04-28 02:29:48] [DEBUG] Registered handler for event 'fix:order:filled'. Total handlers: 2
[2026-04-28 02:29:48] [DEBUG] Registered handler for event 'fix:order:rejected'. Total handlers: 3
[2026-04-28 02:29:48] [INFO] Starting FIX session...
[2026-04-28 02:29:48] [DEBUG] POST https://papertrade.algotrade.vn/accounting/api/fix-account-info/get-fix-id payload_keys=['username', 'password']
[2026-04-28 02:29:48] [DEBUG] [TO ADMIN] 8=FIX.4.4|9=135|35=A|34=1|49=cf030e89c06043adbcd53a5b240a8910|52=20260428-02:29:48.357|56=SERVER|1=main|98=0|108=30|141=Y|553=Group07|554=U13tC8z6H8tO|10=198|
[2026-04-28 02:29:48] [INFO] Logged out: FIX.4.4:cf030e89c06043adbcd53a5b240a8910->SERVER
[2026-04-28 02:29:48] [DEBUG] No handlers registered for event 'fix:logout'
[2026-04-28 02:29:49] [DEBUG] POST https://papertrade.algotrade.vn/accounting/api/fix-account-info/get-fix-id succeeded status_code=200
[2026-04-28 02:29:49] [INFO] event=fix_id_resolved username=Group07 fixAccountID=7aed94a94297406599ec7580013d9bb8
[2026-04-28 02:29:59] [DEBUG] [TO ADMIN] 8=FIX.4.4|9=101|35=0|34=98|49=cf030e89c06043adbcd53a5b240a8910|52=20260428-02:29:59.123|56=SERVER|1=main|553=Group07|10=042|
[2026-04-28 02:30:00] [DEBUG] [FROM ADMIN] 8=FIX.4.4|9=82|35=0|34=98|49=SERVER|52=20260428-02:30:00.325|56=cf030e89c06043adbcd53a5b240a8910|10=141|
[2026-04-28 02:30:18] [DEBUG] [TO ADMIN] 8=FIX.4.4|9=135|35=A|34=1|49=cf030e89c06043adbcd53a5b240a8910|52=20260428-02:30:18.719|56=SERVER|1=main|98=0|108=30|141=Y|553=Group07|554=U13tC8z6H8tO|10=189|
[2026-04-28 02:30:18] [INFO] Logged out: FIX.4.4:cf030e89c06043adbcd53a5b240a8910->SERVER
[2026-04-28 02:30:18] [DEBUG] No handlers registered for event 'fix:logout'
[2026-04-28 02:30:29] [DEBUG] [TO ADMIN] 8=FIX.4.4|9=101|35=0|34=99|49=cf030e89c06043adbcd53a5b240a8910|52=20260428-02:30:29.306|56=SERVER|1=main|553=Group07|10=035|
[2026-04-28 02:30:30] [DEBUG] [FROM ADMIN] 8=FIX.4.4|9=82|35=0|34=99|49=SERVER|52=20260428-02:30:30.326|56=cf030e89c06043adbcd53a5b240a8910|10=146|
[2026-04-28 02:30:48] [DEBUG] [TO ADMIN] 8=FIX.4.4|9=135|35=A|34=1|49=cf030e89c06043adbcd53a5b240a8910|52=20260428-02:30:48.326|56=SERVER|1=main|98=0|108=30|141=Y|553=Group07|554=U13tC8z6H8tO|10=186|
[2026-04-28 02:30:48] [INFO] Logged out: FIX.4.4:cf030e89c06043adbcd53a5b240a8910->SERVER
[2026-04-28 02:30:48] [DEBUG] No handlers registered for event 'fix:logout'
[2026-04-28 02:30:59] [DEBUG] [TO ADMIN] 8=FIX.4.4|9=102|35=0|34=100|49=cf030e89c06043adbcd53a5b240a8910|52=20260428-02:30:59.388|56=SERVER|1=main|553=Group07|10=080|
[2026-04-28 02:31:00] [DEBUG] [FROM ADMIN] 8=FIX.4.4|9=83|35=0|34=100|49=SERVER|52=20260428-02:31:00.326|56=cf030e89c06043adbcd53a5b240a8910|10=176|
[2026-04-28 02:31:15] [INFO] Session created: FIX.4.4:cf030e89c06043adbcd53a5b240a8910->SERVER
[2026-04-28 02:31:15] [DEBUG] FIXSessionManager initialized config=/tmp/paperbroker_aedol136.cfg username=Group07
[2026-04-28 02:31:15] [DEBUG] RestSession initialized with base_url: https://papertrade.algotrade.vn/accounting
[2026-04-28 02:31:15] [INFO] Starting FIX session...
[2026-04-28 02:31:15] [DEBUG] POST https://papertrade.algotrade.vn/accounting/api/fix-account-info/get-fix-id payload_keys=['username', 'password']
[2026-04-28 02:31:15] [DEBUG] [TO ADMIN] 8=FIX.4.4|9=135|35=A|34=1|49=cf030e89c06043adbcd53a5b240a8910|52=20260428-02:31:15.507|56=SERVER|1=main|98=0|108=30|141=Y|553=Group07|554=U13tC8z6H8tO|10=182|
[2026-04-28 02:31:15] [INFO] Logged out: FIX.4.4:cf030e89c06043adbcd53a5b240a8910->SERVER
[2026-04-28 02:31:15] [DEBUG] No handlers registered for event 'fix:logout'
[2026-04-28 02:31:16] [DEBUG] POST https://papertrade.algotrade.vn/accounting/api/fix-account-info/get-fix-id succeeded status_code=200
[2026-04-28 02:31:16] [INFO] event=fix_id_resolved username=Group07 fixAccountID=7aed94a94297406599ec7580013d9bb8
[2026-04-28 02:31:19] [INFO] Stopping FIX session...
[2026-04-28 02:31:29] [DEBUG] [TO ADMIN] 8=FIX.4.4|9=102|35=0|34=101|49=cf030e89c06043adbcd53a5b240a8910|52=20260428-02:31:29.076|56=SERVER|1=main|553=Group07|10=073|
[2026-04-28 02:31:30] [DEBUG] [FROM ADMIN] 8=FIX.4.4|9=83|35=0|34=101|49=SERVER|52=20260428-02:31:30.325|56=cf030e89c06043adbcd53a5b240a8910|10=179|
[2026-04-28 09:31:32] [INFO] Session created: FIX.4.4:cf030e89c06043adbcd53a5b240a8910->SERVER
[2026-04-28 09:31:32] [DEBUG] FIXSessionManager initialized config=/tmp/paperbroker_t3h_mp2k.cfg username=Group07
[2026-04-28 09:31:32] [DEBUG] RestSession initialized with base_url: https://papertrade.algotrade.vn/accounting
[2026-04-28 09:31:32] [DEBUG] Registered handler for event 'fix:logon'. Total handlers: 1
[2026-04-28 09:31:32] [DEBUG] Registered handler for event 'fix:order:filled'. Total handlers: 2
[2026-04-28 09:31:32] [DEBUG] Registered handler for event 'fix:order:rejected'. Total handlers: 3
[2026-04-28 09:31:32] [INFO] Starting FIX session...
[2026-04-28 09:31:32] [DEBUG] POST https://papertrade.algotrade.vn/accounting/api/fix-account-info/get-fix-id payload_keys=['username', 'password']
[2026-04-28 09:31:32] [DEBUG] [TO ADMIN] 8=FIX.4.4|9=135|35=A|34=1|49=cf030e89c06043adbcd53a5b240a8910|52=20260428-02:31:32.819|56=SERVER|1=main|98=0|108=30|141=Y|553=Group07|554=U13tC8z6H8tO|10=187|
[2026-04-28 09:31:32] [INFO] Logged out: FIX.4.4:cf030e89c06043adbcd53a5b240a8910->SERVER
[2026-04-28 09:31:32] [DEBUG] No handlers registered for event 'fix:logout'
[2026-04-28 09:31:33] [DEBUG] POST https://papertrade.algotrade.vn/accounting/api/fix-account-info/get-fix-id succeeded status_code=200
[2026-04-28 09:31:33] [INFO] event=fix_id_resolved username=Group07 fixAccountID=7aed94a94297406599ec7580013d9bb8
[2026-04-28 02:31:59] [DEBUG] [TO ADMIN] 8=FIX.4.4|9=102|35=0|34=102|49=cf030e89c06043adbcd53a5b240a8910|52=20260428-02:31:59.220|56=SERVER|1=main|553=Group07|10=068|
[2026-04-28 02:32:00] [DEBUG] [FROM ADMIN] 8=FIX.4.4|9=83|35=0|34=102|49=SERVER|52=20260428-02:32:00.326|56=cf030e89c06043adbcd53a5b240a8910|10=179|
[2026-04-28 09:32:02] [DEBUG] [TO ADMIN] 8=FIX.4.4|9=135|35=A|34=1|49=cf030e89c06043adbcd53a5b240a8910|52=20260428-02:32:02.325|56=SERVER|1=main|98=0|108=30|141=Y|553=Group07|554=U13tC8z6H8tO|10=177|
[2026-04-28 09:32:02] [INFO] Logged out: FIX.4.4:cf030e89c06043adbcd53a5b240a8910->SERVER
[2026-04-28 09:32:02] [DEBUG] No handlers registered for event 'fix:logout'
[2026-04-28 02:32:29] [DEBUG] [TO ADMIN] 8=FIX.4.4|9=102|35=0|34=103|49=cf030e89c06043adbcd53a5b240a8910|52=20260428-02:32:29.221|56=SERVER|1=main|553=Group07|10=068|
[2026-04-28 02:32:30] [DEBUG] [FROM ADMIN] 8=FIX.4.4|9=83|35=0|34=103|49=SERVER|52=20260428-02:32:30.325|56=cf030e89c06043adbcd53a5b240a8910|10=182|
[2026-04-28 09:32:32] [DEBUG] [TO ADMIN] 8=FIX.4.4|9=135|35=A|34=1|49=cf030e89c06043adbcd53a5b240a8910|52=20260428-02:32:32.348|56=SERVER|1=main|98=0|108=30|141=Y|553=Group07|554=U13tC8z6H8tO|10=185|
[2026-04-28 09:32:32] [INFO] Logged out: FIX.4.4:cf030e89c06043adbcd53a5b240a8910->SERVER
[2026-04-28 09:32:32] [DEBUG] No handlers registered for event 'fix:logout'
[2026-04-28 09:32:37] [INFO] Session created: FIX.4.4:cf030e89c06043adbcd53a5b240a8910->SERVER
[2026-04-28 09:32:37] [DEBUG] FIXSessionManager initialized config=/tmp/paperbroker_g8ip5c10.cfg username=Group07
[2026-04-28 09:32:37] [DEBUG] RestSession initialized with base_url: https://papertrade.algotrade.vn/accounting
[2026-04-28 09:32:37] [DEBUG] Registered handler for event 'fix:logon'. Total handlers: 1
[2026-04-28 09:32:37] [DEBUG] Registered handler for event 'fix:order:filled'. Total handlers: 2
[2026-04-28 09:32:37] [DEBUG] Registered handler for event 'fix:order:rejected'. Total handlers: 3
[2026-04-28 09:32:37] [INFO] Starting FIX session...
[2026-04-28 09:32:37] [DEBUG] POST https://papertrade.algotrade.vn/accounting/api/fix-account-info/get-fix-id payload_keys=['username', 'password']
[2026-04-28 09:32:37] [DEBUG] [TO ADMIN] 8=FIX.4.4|9=135|35=A|34=1|49=cf030e89c06043adbcd53a5b240a8910|52=20260428-02:32:37.198|56=SERVER|1=main|98=0|108=30|141=Y|553=Group07|554=U13tC8z6H8tO|10=193|
[2026-04-28 09:32:37] [INFO] Logged out: FIX.4.4:cf030e89c06043adbcd53a5b240a8910->SERVER
[2026-04-28 09:32:37] [DEBUG] No handlers registered for event 'fix:logout'
[2026-04-28 09:32:37] [DEBUG] POST https://papertrade.algotrade.vn/accounting/api/fix-account-info/get-fix-id succeeded status_code=200
[2026-04-28 09:32:37] [INFO] event=fix_id_resolved username=Group07 fixAccountID=7aed94a94297406599ec7580013d9bb8
[2026-04-28 02:32:59] [DEBUG] [TO ADMIN] 8=FIX.4.4|9=102|35=0|34=104|49=cf030e89c06043adbcd53a5b240a8910|52=20260428-02:32:59.032|56=SERVER|1=main|553=Group07|10=072|
[2026-04-28 02:33:00] [DEBUG] [FROM ADMIN] 8=FIX.4.4|9=83|35=0|34=104|49=SERVER|52=20260428-02:33:00.325|56=cf030e89c06043adbcd53a5b240a8910|10=181|
[2026-04-28 09:33:07] [DEBUG] [TO ADMIN] 8=FIX.4.4|9=135|35=A|34=1|49=cf030e89c06043adbcd53a5b240a8910|52=20260428-02:33:07.578|56=SERVER|1=main|98=0|108=30|141=Y|553=Group07|554=U13tC8z6H8tO|10=193|
[2026-04-28 09:33:07] [INFO] Logged out: FIX.4.4:cf030e89c06043adbcd53a5b240a8910->SERVER
[2026-04-28 09:33:07] [DEBUG] No handlers registered for event 'fix:logout'
[2026-04-28 02:33:29] [DEBUG] [TO ADMIN] 8=FIX.4.4|9=102|35=0|34=105|49=cf030e89c06043adbcd53a5b240a8910|52=20260428-02:33:29.146|56=SERVER|1=main|553=Group07|10=077|
[2026-04-28 02:33:30] [DEBUG] [FROM ADMIN] 8=FIX.4.4|9=83|35=0|34=105|49=SERVER|52=20260428-02:33:30.325|56=cf030e89c06043adbcd53a5b240a8910|10=185|
[2026-04-28 09:33:37] [DEBUG] [TO ADMIN] 8=FIX.4.4|9=135|35=A|34=1|49=cf030e89c06043adbcd53a5b240a8910|52=20260428-02:33:37.308|56=SERVER|1=main|98=0|108=30|141=Y|553=Group07|554=U13tC8z6H8tO|10=187|
[2026-04-28 09:33:37] [INFO] Logged out: FIX.4.4:cf030e89c06043adbcd53a5b240a8910->SERVER
[2026-04-28 09:33:37] [DEBUG] No handlers registered for event 'fix:logout'
[2026-04-28 02:33:59] [DEBUG] [TO ADMIN] 8=FIX.4.4|9=102|35=0|34=106|49=cf030e89c06043adbcd53a5b240a8910|52=20260428-02:33:59.007|56=SERVER|1=main|553=Group07|10=077|
[2026-04-28 02:34:00] [DEBUG] [FROM ADMIN] 8=FIX.4.4|9=83|35=0|34=106|49=SERVER|52=20260428-02:34:00.326|56=cf030e89c06043adbcd53a5b240a8910|10=185|
[2026-04-28 02:34:29] [DEBUG] [TO ADMIN] 8=FIX.4.4|9=102|35=0|34=107|49=cf030e89c06043adbcd53a5b240a8910|52=20260428-02:34:29.108|56=SERVER|1=main|553=Group07|10=078|
[2026-04-28 02:34:30] [DEBUG] [FROM ADMIN] 8=FIX.4.4|9=83|35=0|34=107|49=SERVER|52=20260428-02:34:30.325|56=cf030e89c06043adbcd53a5b240a8910|10=188|
[2026-04-28 02:34:59] [DEBUG] [TO ADMIN] 8=FIX.4.4|9=102|35=0|34=108|49=cf030e89c06043adbcd53a5b240a8910|52=20260428-02:34:59.062|56=SERVER|1=main|553=Group07|10=081|
[2026-04-28 02:35:00] [DEBUG] [FROM ADMIN] 8=FIX.4.4|9=83|35=0|34=108|49=SERVER|52=20260428-02:35:00.325|56=cf030e89c06043adbcd53a5b240a8910|10=187|
[2026-04-28 02:35:29] [DEBUG] [TO ADMIN] 8=FIX.4.4|9=102|35=0|34=109|49=cf030e89c06043adbcd53a5b240a8910|52=20260428-02:35:29.007|56=SERVER|1=main|553=Group07|10=079|
[2026-04-28 02:35:30] [DEBUG] [FROM ADMIN] 8=FIX.4.4|9=83|35=0|34=109|49=SERVER|52=20260428-02:35:30.325|56=cf030e89c06043adbcd53a5b240a8910|10=191|
[2026-04-28 02:35:59] [DEBUG] [TO ADMIN] 8=FIX.4.4|9=102|35=0|34=110|49=cf030e89c06043adbcd53a5b240a8910|52=20260428-02:35:59.963|56=SERVER|1=main|553=Group07|10=085|
[2026-04-28 02:36:00] [DEBUG] [FROM ADMIN] 8=FIX.4.4|9=83|35=0|34=110|49=SERVER|52=20260428-02:36:00.325|56=cf030e89c06043adbcd53a5b240a8910|10=181|
[2026-04-28 02:36:29] [DEBUG] [TO ADMIN] 8=FIX.4.4|9=102|35=0|34=111|49=cf030e89c06043adbcd53a5b240a8910|52=20260428-02:36:29.101|56=SERVER|1=main|553=Group07|10=068|
[2026-04-28 02:36:30] [DEBUG] [FROM ADMIN] 8=FIX.4.4|9=83|35=0|34=111|49=SERVER|52=20260428-02:36:30.325|56=cf030e89c06043adbcd53a5b240a8910|10=185|
[2026-04-28 02:36:59] [DEBUG] [TO ADMIN] 8=FIX.4.4|9=102|35=0|34=112|49=cf030e89c06043adbcd53a5b240a8910|52=20260428-02:36:59.652|56=SERVER|1=main|553=Group07|10=083|
[2026-04-28 02:37:00] [DEBUG] [FROM ADMIN] 8=FIX.4.4|9=83|35=0|34=112|49=SERVER|52=20260428-02:37:00.326|56=cf030e89c06043adbcd53a5b240a8910|10=185|
[2026-04-28 02:37:15] [INFO] Session created: FIX.4.4:cf030e89c06043adbcd53a5b240a8910->SERVER
[2026-04-28 02:37:15] [DEBUG] FIXSessionManager initialized config=/tmp/paperbroker_z_y1ajoz.cfg username=Group07
[2026-04-28 02:37:15] [DEBUG] RestSession initialized with base_url: https://papertrade.algotrade.vn/accounting
[2026-04-28 02:37:15] [INFO] Starting FIX session...
[2026-04-28 02:37:15] [DEBUG] POST https://papertrade.algotrade.vn/accounting/api/fix-account-info/get-fix-id payload_keys=['username', 'password']
[2026-04-28 02:37:15] [DEBUG] [TO ADMIN] 8=FIX.4.4|9=135|35=A|34=1|49=cf030e89c06043adbcd53a5b240a8910|52=20260428-02:37:15.856|56=SERVER|1=main|98=0|108=30|141=Y|553=Group07|554=U13tC8z6H8tO|10=195|
[2026-04-28 02:37:15] [INFO] Logged out: FIX.4.4:cf030e89c06043adbcd53a5b240a8910->SERVER
[2026-04-28 02:37:15] [DEBUG] No handlers registered for event 'fix:logout'
[2026-04-28 02:37:16] [DEBUG] POST https://papertrade.algotrade.vn/accounting/api/fix-account-info/get-fix-id succeeded status_code=200
[2026-04-28 02:37:16] [INFO] event=fix_id_resolved username=Group07 fixAccountID=7aed94a94297406599ec7580013d9bb8
[2026-04-28 02:37:19] [INFO] Stopping FIX session...
[2026-04-28 02:37:29] [DEBUG] [TO ADMIN] 8=FIX.4.4|9=102|35=0|34=113|49=cf030e89c06043adbcd53a5b240a8910|52=20260428-02:37:29.362|56=SERVER|1=main|553=Group07|10=080|
[2026-04-28 02:37:30] [DEBUG] [FROM ADMIN] 8=FIX.4.4|9=83|35=0|34=113|49=SERVER|52=20260428-02:37:30.325|56=cf030e89c06043adbcd53a5b240a8910|10=188|
[2026-04-28 02:37:59] [DEBUG] [TO ADMIN] 8=FIX.4.4|9=102|35=0|34=114|49=cf030e89c06043adbcd53a5b240a8910|52=20260428-02:37:59.258|56=SERVER|1=main|553=Group07|10=088|
[2026-04-28 02:38:00] [DEBUG] [FROM ADMIN] 8=FIX.4.4|9=83|35=0|34=114|49=SERVER|52=20260428-02:38:00.326|56=cf030e89c06043adbcd53a5b240a8910|10=188|
[2026-04-28 02:38:29] [DEBUG] [TO ADMIN] 8=FIX.4.4|9=102|35=0|34=115|49=cf030e89c06043adbcd53a5b240a8910|52=20260428-02:38:29.607|56=SERVER|1=main|553=Group07|10=085|
[2026-04-28 02:38:30] [DEBUG] [FROM ADMIN] 8=FIX.4.4|9=83|35=0|34=115|49=SERVER|52=20260428-02:38:30.325|56=cf030e89c06043adbcd53a5b240a8910|10=191|
[2026-04-28 02:38:59] [DEBUG] [TO ADMIN] 8=FIX.4.4|9=102|35=0|34=116|49=cf030e89c06043adbcd53a5b240a8910|52=20260428-02:38:59.355|56=SERVER|1=main|553=Group07|10=089|
[2026-04-28 02:39:00] [DEBUG] [FROM ADMIN] 8=FIX.4.4|9=83|35=0|34=116|49=SERVER|52=20260428-02:39:00.325|56=cf030e89c06043adbcd53a5b240a8910|10=190|
[2026-04-28 02:39:29] [DEBUG] [TO ADMIN] 8=FIX.4.4|9=102|35=0|34=117|49=cf030e89c06043adbcd53a5b240a8910|52=20260428-02:39:29.268|56=SERVER|1=main|553=Group07|10=091|
[2026-04-28 02:39:30] [DEBUG] [FROM ADMIN] 8=FIX.4.4|9=83|35=0|34=117|49=SERVER|52=20260428-02:39:30.326|56=cf030e89c06043adbcd53a5b240a8910|10=195|
[2026-04-28 09:39:42] [INFO] Session created: FIX.4.4:cf030e89c06043adbcd53a5b240a8910->SERVER
[2026-04-28 09:39:42] [DEBUG] FIXSessionManager initialized config=/tmp/paperbroker_cz5j0ulm.cfg username=Group07
[2026-04-28 09:39:42] [DEBUG] RestSession initialized with base_url: https://papertrade.algotrade.vn/accounting
[2026-04-28 09:39:42] [DEBUG] Registered handler for event 'fix:logon'. Total handlers: 1
[2026-04-28 09:39:42] [DEBUG] Registered handler for event 'fix:order:filled'. Total handlers: 2
[2026-04-28 09:39:42] [DEBUG] Registered handler for event 'fix:order:rejected'. Total handlers: 3
[2026-04-28 09:39:42] [INFO] Starting FIX session...
[2026-04-28 09:39:42] [DEBUG] POST https://papertrade.algotrade.vn/accounting/api/fix-account-info/get-fix-id payload_keys=['username', 'password']
[2026-04-28 09:39:42] [DEBUG] [TO ADMIN] 8=FIX.4.4|9=135|35=A|34=1|49=cf030e89c06043adbcd53a5b240a8910|52=20260428-02:39:42.699|56=SERVER|1=main|98=0|108=30|141=Y|553=Group07|554=U13tC8z6H8tO|10=202|
[2026-04-28 09:39:42] [INFO] Logged out: FIX.4.4:cf030e89c06043adbcd53a5b240a8910->SERVER
[2026-04-28 09:39:42] [DEBUG] No handlers registered for event 'fix:logout'
[2026-04-28 09:39:43] [DEBUG] POST https://papertrade.algotrade.vn/accounting/api/fix-account-info/get-fix-id succeeded status_code=200
[2026-04-28 09:39:43] [INFO] event=fix_id_resolved username=Group07 fixAccountID=7aed94a94297406599ec7580013d9bb8
[2026-04-28 02:39:59] [DEBUG] [TO ADMIN] 8=FIX.4.4|9=102|35=0|34=118|49=cf030e89c06043adbcd53a5b240a8910|52=20260428-02:39:59.371|56=SERVER|1=main|553=Group07|10=090|
[2026-04-28 02:40:00] [DEBUG] [FROM ADMIN] 8=FIX.4.4|9=83|35=0|34=118|49=SERVER|52=20260428-02:40:00.326|56=cf030e89c06043adbcd53a5b240a8910|10=185|
[2026-04-28 09:40:12] [DEBUG] [TO ADMIN] 8=FIX.4.4|9=135|35=A|34=1|49=cf030e89c06043adbcd53a5b240a8910|52=20260428-02:40:12.121|56=SERVER|1=main|98=0|108=30|141=Y|553=Group07|554=U13tC8z6H8tO|10=171|
[2026-04-28 09:40:12] [INFO] Logged out: FIX.4.4:cf030e89c06043adbcd53a5b240a8910->SERVER
[2026-04-28 09:40:12] [DEBUG] No handlers registered for event 'fix:logout'
[2026-04-28 02:40:29] [DEBUG] [TO ADMIN] 8=FIX.4.4|9=102|35=0|34=119|49=cf030e89c06043adbcd53a5b240a8910|52=20260428-02:40:29.252|56=SERVER|1=main|553=Group07|10=078|
[2026-04-28 02:40:30] [DEBUG] [FROM ADMIN] 8=FIX.4.4|9=83|35=0|34=119|49=SERVER|52=20260428-02:40:30.326|56=cf030e89c06043adbcd53a5b240a8910|10=189|
[2026-04-28 09:40:42] [DEBUG] [TO ADMIN] 8=FIX.4.4|9=135|35=A|34=1|49=cf030e89c06043adbcd53a5b240a8910|52=20260428-02:40:42.538|56=SERVER|1=main|98=0|108=30|141=Y|553=Group07|554=U13tC8z6H8tO|10=186|
[2026-04-28 09:40:42] [INFO] Logged out: FIX.4.4:cf030e89c06043adbcd53a5b240a8910->SERVER
[2026-04-28 09:40:42] [DEBUG] No handlers registered for event 'fix:logout'
[2026-04-28 02:40:59] [DEBUG] [TO ADMIN] 8=FIX.4.4|9=102|35=0|34=120|49=cf030e89c06043adbcd53a5b240a8910|52=20260428-02:40:59.094|56=SERVER|1=main|553=Group07|10=077|
[2026-04-28 02:41:00] [DEBUG] [FROM ADMIN] 8=FIX.4.4|9=83|35=0|34=120|49=SERVER|52=20260428-02:41:00.325|56=cf030e89c06043adbcd53a5b240a8910|10=178|
[2026-04-28 02:41:18] [INFO] Session created: FIX.4.4:cf030e89c06043adbcd53a5b240a8910->SERVER
[2026-04-28 02:41:18] [DEBUG] FIXSessionManager initialized config=/tmp/paperbroker__slxq5it.cfg username=Group07
[2026-04-28 02:41:18] [DEBUG] RestSession initialized with base_url: https://papertrade.algotrade.vn/accounting
[2026-04-28 02:41:18] [INFO] Starting FIX session...
[2026-04-28 02:41:18] [DEBUG] POST https://papertrade.algotrade.vn/accounting/api/fix-account-info/get-fix-id payload_keys=['username', 'password']
[2026-04-28 02:41:18] [DEBUG] [TO ADMIN] 8=FIX.4.4|9=135|35=A|34=1|49=cf030e89c06043adbcd53a5b240a8910|52=20260428-02:41:18.348|56=SERVER|1=main|98=0|108=30|141=Y|553=Group07|554=U13tC8z6H8tO|10=189|
[2026-04-28 02:41:18] [INFO] Logged out: FIX.4.4:cf030e89c06043adbcd53a5b240a8910->SERVER
[2026-04-28 02:41:18] [DEBUG] No handlers registered for event 'fix:logout'
[2026-04-28 02:41:18] [DEBUG] POST https://papertrade.algotrade.vn/accounting/api/fix-account-info/get-fix-id succeeded status_code=200
[2026-04-28 02:41:18] [INFO] event=fix_id_resolved username=Group07 fixAccountID=7aed94a94297406599ec7580013d9bb8
[2026-04-28 02:41:21] [INFO] Stopping FIX session...
[2026-04-28 02:41:29] [DEBUG] [TO ADMIN] 8=FIX.4.4|9=102|35=0|34=121|49=cf030e89c06043adbcd53a5b240a8910|52=20260428-02:41:29.355|56=SERVER|1=main|553=Group07|10=076|
[2026-04-28 02:41:30] [DEBUG] [FROM ADMIN] 8=FIX.4.4|9=83|35=0|34=121|49=SERVER|52=20260428-02:41:30.325|56=cf030e89c06043adbcd53a5b240a8910|10=182|
[2026-04-28 02:41:59] [DEBUG] [TO ADMIN] 8=FIX.4.4|9=102|35=0|34=122|49=cf030e89c06043adbcd53a5b240a8910|52=20260428-02:41:59.024|56=SERVER|1=main|553=Group07|10=073|
[2026-04-28 02:42:00] [DEBUG] [FROM ADMIN] 8=FIX.4.4|9=83|35=0|34=122|49=SERVER|52=20260428-02:42:00.325|56=cf030e89c06043adbcd53a5b240a8910|10=181|
[2026-04-28 02:42:29] [DEBUG] [TO ADMIN] 8=FIX.4.4|9=102|35=0|34=123|49=cf030e89c06043adbcd53a5b240a8910|52=20260428-02:42:29.144|56=SERVER|1=main|553=Group07|10=075|
[2026-04-28 02:42:30] [DEBUG] [FROM ADMIN] 8=FIX.4.4|9=83|35=0|34=123|49=SERVER|52=20260428-02:42:30.325|56=cf030e89c06043adbcd53a5b240a8910|10=185|
[2026-04-28 02:42:59] [DEBUG] [TO ADMIN] 8=FIX.4.4|9=102|35=0|34=124|49=cf030e89c06043adbcd53a5b240a8910|52=20260428-02:42:59.077|56=SERVER|1=main|553=Group07|10=084|
[2026-04-28 02:43:00] [DEBUG] [FROM ADMIN] 8=FIX.4.4|9=83|35=0|34=124|49=SERVER|52=20260428-02:43:00.325|56=cf030e89c06043adbcd53a5b240a8910|10=184|
[2026-04-28 02:43:29] [DEBUG] [TO ADMIN] 8=FIX.4.4|9=102|35=0|34=125|49=cf030e89c06043adbcd53a5b240a8910|52=20260428-02:43:29.130|56=SERVER|1=main|553=Group07|10=073|
[2026-04-28 02:43:30] [DEBUG] [FROM ADMIN] 8=FIX.4.4|9=83|35=0|34=125|49=SERVER|52=20260428-02:43:30.325|56=cf030e89c06043adbcd53a5b240a8910|10=188|
[2026-04-28 02:43:59] [DEBUG] [TO ADMIN] 8=FIX.4.4|9=102|35=0|34=126|49=cf030e89c06043adbcd53a5b240a8910|52=20260428-02:43:59.051|56=SERVER|1=main|553=Group07|10=079|
[2026-04-28 02:44:00] [DEBUG] [FROM ADMIN] 8=FIX.4.4|9=83|35=0|34=126|49=SERVER|52=20260428-02:44:00.325|56=cf030e89c06043adbcd53a5b240a8910|10=187|
[2026-04-28 02:44:29] [DEBUG] [TO ADMIN] 8=FIX.4.4|9=102|35=0|34=127|49=cf030e89c06043adbcd53a5b240a8910|52=20260428-02:44:29.556|56=SERVER|1=main|553=Group07|10=088|
[2026-04-28 02:44:30] [DEBUG] [FROM ADMIN] 8=FIX.4.4|9=83|35=0|34=127|49=SERVER|52=20260428-02:44:30.326|56=cf030e89c06043adbcd53a5b240a8910|10=192|
[2026-04-28 09:44:38] [INFO] Session created: FIX.4.4:cf030e89c06043adbcd53a5b240a8910->SERVER
[2026-04-28 09:44:38] [DEBUG] FIXSessionManager initialized config=/tmp/paperbroker_1ajp2pjh.cfg username=Group07
[2026-04-28 09:44:38] [DEBUG] RestSession initialized with base_url: https://papertrade.algotrade.vn/accounting
[2026-04-28 09:44:38] [DEBUG] Registered handler for event 'fix:logon'. Total handlers: 1
[2026-04-28 09:44:38] [DEBUG] Registered handler for event 'fix:order:filled'. Total handlers: 2
[2026-04-28 09:44:38] [DEBUG] Registered handler for event 'fix:order:rejected'. Total handlers: 3
[2026-04-28 09:44:38] [INFO] Starting FIX session...
[2026-04-28 09:44:38] [DEBUG] POST https://papertrade.algotrade.vn/accounting/api/fix-account-info/get-fix-id payload_keys=['username', 'password']
[2026-04-28 09:44:38] [DEBUG] [TO ADMIN] 8=FIX.4.4|9=135|35=A|34=1|49=cf030e89c06043adbcd53a5b240a8910|52=20260428-02:44:38.546|56=SERVER|1=main|98=0|108=30|141=Y|553=Group07|554=U13tC8z6H8tO|10=194|
[2026-04-28 09:44:38] [INFO] Logged out: FIX.4.4:cf030e89c06043adbcd53a5b240a8910->SERVER
[2026-04-28 09:44:38] [DEBUG] No handlers registered for event 'fix:logout'
[2026-04-28 09:44:39] [DEBUG] POST https://papertrade.algotrade.vn/accounting/api/fix-account-info/get-fix-id succeeded status_code=200
[2026-04-28 09:44:39] [INFO] event=fix_id_resolved username=Group07 fixAccountID=7aed94a94297406599ec7580013d9bb8
[2026-04-28 02:44:59] [DEBUG] [TO ADMIN] 8=FIX.4.4|9=102|35=0|34=128|49=cf030e89c06043adbcd53a5b240a8910|52=20260428-02:44:59.598|56=SERVER|1=main|553=Group07|10=098|
[2026-04-28 02:45:00] [DEBUG] [FROM ADMIN] 8=FIX.4.4|9=83|35=0|34=128|49=SERVER|52=20260428-02:45:00.325|56=cf030e89c06043adbcd53a5b240a8910|10=190|
[2026-04-28 09:45:08] [DEBUG] [TO ADMIN] 8=FIX.4.4|9=135|35=A|34=1|49=cf030e89c06043adbcd53a5b240a8910|52=20260428-02:45:08.081|56=SERVER|1=main|98=0|108=30|141=Y|553=Group07|554=U13tC8z6H8tO|10=186|
[2026-04-28 09:45:08] [INFO] Logged out: FIX.4.4:cf030e89c06043adbcd53a5b240a8910->SERVER
[2026-04-28 09:45:08] [DEBUG] No handlers registered for event 'fix:logout'
[2026-04-28 02:45:29] [DEBUG] [TO ADMIN] 8=FIX.4.4|9=102|35=0|34=129|49=cf030e89c06043adbcd53a5b240a8910|52=20260428-02:45:29.750|56=SERVER|1=main|553=Group07|10=087|
[2026-04-28 02:45:30] [DEBUG] [FROM ADMIN] 8=FIX.4.4|9=83|35=0|34=129|49=SERVER|52=20260428-02:45:30.325|56=cf030e89c06043adbcd53a5b240a8910|10=194|
[2026-04-28 09:45:38] [DEBUG] [TO ADMIN] 8=FIX.4.4|9=135|35=A|34=1|49=cf030e89c06043adbcd53a5b240a8910|52=20260428-02:45:38.745|56=SERVER|1=main|98=0|108=30|141=Y|553=Group07|554=U13tC8z6H8tO|10=196|
[2026-04-28 09:45:38] [INFO] Logged out: FIX.4.4:cf030e89c06043adbcd53a5b240a8910->SERVER
[2026-04-28 09:45:38] [DEBUG] No handlers registered for event 'fix:logout'
[2026-04-28 02:45:59] [DEBUG] [TO ADMIN] 8=FIX.4.4|9=102|35=0|34=130|49=cf030e89c06043adbcd53a5b240a8910|52=20260428-02:45:59.653|56=SERVER|1=main|553=Group07|10=084|
[2026-04-28 02:46:00] [DEBUG] [FROM ADMIN] 8=FIX.4.4|9=83|35=0|34=130|49=SERVER|52=20260428-02:46:00.325|56=cf030e89c06043adbcd53a5b240a8910|10=184|
[2026-04-28 02:46:29] [DEBUG] [TO ADMIN] 8=FIX.4.4|9=102|35=0|34=131|49=cf030e89c06043adbcd53a5b240a8910|52=20260428-02:46:29.073|56=SERVER|1=main|553=Group07|10=079|
[2026-04-28 02:46:30] [DEBUG] [FROM ADMIN] 8=FIX.4.4|9=83|35=0|34=131|49=SERVER|52=20260428-02:46:30.325|56=cf030e89c06043adbcd53a5b240a8910|10=188|
[2026-04-28 02:46:59] [DEBUG] [TO ADMIN] 8=FIX.4.4|9=102|35=0|34=132|49=cf030e89c06043adbcd53a5b240a8910|52=20260428-02:46:59.304|56=SERVER|1=main|553=Group07|10=080|
[2026-04-28 02:47:00] [DEBUG] [FROM ADMIN] 8=FIX.4.4|9=83|35=0|34=132|49=SERVER|52=20260428-02:47:00.325|56=cf030e89c06043adbcd53a5b240a8910|10=187|
[2026-04-28 02:47:29] [DEBUG] [TO ADMIN] 8=FIX.4.4|9=102|35=0|34=133|49=cf030e89c06043adbcd53a5b240a8910|52=20260428-02:47:29.716|56=SERVER|1=main|553=Group07|10=086|
[2026-04-28 02:47:30] [DEBUG] [FROM ADMIN] 8=FIX.4.4|9=83|35=0|34=133|49=SERVER|52=20260428-02:47:30.325|56=cf030e89c06043adbcd53a5b240a8910|10=191|
[2026-04-28 02:47:59] [DEBUG] [TO ADMIN] 8=FIX.4.4|9=102|35=0|34=134|49=cf030e89c06043adbcd53a5b240a8910|52=20260428-02:47:59.203|56=SERVER|1=main|553=Group07|10=081|
[2026-04-28 02:48:00] [DEBUG] [FROM ADMIN] 8=FIX.4.4|9=83|35=0|34=134|49=SERVER|52=20260428-02:48:00.325|56=cf030e89c06043adbcd53a5b240a8910|10=190|
[2026-04-28 02:48:29] [DEBUG] [TO ADMIN] 8=FIX.4.4|9=102|35=0|34=135|49=cf030e89c06043adbcd53a5b240a8910|52=20260428-02:48:29.146|56=SERVER|1=main|553=Group07|10=086|
[2026-04-28 02:48:30] [DEBUG] [FROM ADMIN] 8=FIX.4.4|9=83|35=0|34=135|49=SERVER|52=20260428-02:48:30.325|56=cf030e89c06043adbcd53a5b240a8910|10=194|
[2026-04-28 02:48:59] [DEBUG] [TO ADMIN] 8=FIX.4.4|9=102|35=0|34=136|49=cf030e89c06043adbcd53a5b240a8910|52=20260428-02:48:59.134|56=SERVER|1=main|553=Group07|10=087|
[2026-04-28 02:49:00] [DEBUG] [FROM ADMIN] 8=FIX.4.4|9=83|35=0|34=136|49=SERVER|52=20260428-02:49:00.326|56=cf030e89c06043adbcd53a5b240a8910|10=194|
[2026-04-28 02:49:29] [DEBUG] [TO ADMIN] 8=FIX.4.4|9=102|35=0|34=137|49=cf030e89c06043adbcd53a5b240a8910|52=20260428-02:49:29.073|56=SERVER|1=main|553=Group07|10=088|
[2026-04-28 02:49:30] [DEBUG] [FROM ADMIN] 8=FIX.4.4|9=83|35=0|34=137|49=SERVER|52=20260428-02:49:30.325|56=cf030e89c06043adbcd53a5b240a8910|10=197|
[2026-04-28 02:49:59] [DEBUG] [TO ADMIN] 8=FIX.4.4|9=102|35=0|34=138|49=cf030e89c06043adbcd53a5b240a8910|52=20260428-02:49:59.123|56=SERVER|1=main|553=Group07|10=088|
[2026-04-28 02:50:00] [DEBUG] [FROM ADMIN] 8=FIX.4.4|9=83|35=0|34=138|49=SERVER|52=20260428-02:50:00.325|56=cf030e89c06043adbcd53a5b240a8910|10=187|
[2026-04-28 02:50:29] [DEBUG] [TO ADMIN] 8=FIX.4.4|9=102|35=0|34=139|49=cf030e89c06043adbcd53a5b240a8910|52=20260428-02:50:29.134|56=SERVER|1=main|553=Group07|10=080|
[2026-04-28 02:50:30] [DEBUG] [FROM ADMIN] 8=FIX.4.4|9=83|35=0|34=139|49=SERVER|52=20260428-02:50:30.325|56=cf030e89c06043adbcd53a5b240a8910|10=191|
[2026-04-28 02:50:59] [DEBUG] [TO ADMIN] 8=FIX.4.4|9=102|35=0|34=140|49=cf030e89c06043adbcd53a5b240a8910|52=20260428-02:50:59.204|56=SERVER|1=main|553=Group07|10=073|
[2026-04-28 02:51:00] [DEBUG] [FROM ADMIN] 8=FIX.4.4|9=83|35=0|34=140|49=SERVER|52=20260428-02:51:00.326|56=cf030e89c06043adbcd53a5b240a8910|10=182|
[2026-04-28 02:51:29] [DEBUG] [TO ADMIN] 8=FIX.4.4|9=102|35=0|34=141|49=cf030e89c06043adbcd53a5b240a8910|52=20260428-02:51:29.033|56=SERVER|1=main|553=Group07|10=072|
[2026-04-28 02:51:30] [DEBUG] [FROM ADMIN] 8=FIX.4.4|9=83|35=0|34=141|49=SERVER|52=20260428-02:51:30.325|56=cf030e89c06043adbcd53a5b240a8910|10=185|
[2026-04-28 02:51:59] [DEBUG] [TO ADMIN] 8=FIX.4.4|9=102|35=0|34=142|49=cf030e89c06043adbcd53a5b240a8910|52=20260428-02:51:59.044|56=SERVER|1=main|553=Group07|10=078|
[2026-04-28 02:52:00] [DEBUG] [FROM ADMIN] 8=FIX.4.4|9=83|35=0|34=142|49=SERVER|52=20260428-02:52:00.326|56=cf030e89c06043adbcd53a5b240a8910|10=185|
[2026-04-28 02:52:29] [DEBUG] [TO ADMIN] 8=FIX.4.4|9=102|35=0|34=143|49=cf030e89c06043adbcd53a5b240a8910|52=20260428-02:52:29.905|56=SERVER|1=main|553=Group07|10=083|
[2026-04-28 02:52:30] [DEBUG] [FROM ADMIN] 8=FIX.4.4|9=83|35=0|34=143|49=SERVER|52=20260428-02:52:30.325|56=cf030e89c06043adbcd53a5b240a8910|10=188|
[2026-04-28 02:52:48] [INFO] Session created: FIX.4.4:cf030e89c06043adbcd53a5b240a8910->SERVER
[2026-04-28 02:52:48] [DEBUG] FIXSessionManager initialized config=/tmp/paperbroker_lopow2r_.cfg username=Group07
[2026-04-28 02:52:48] [DEBUG] RestSession initialized with base_url: https://papertrade.algotrade.vn/accounting
[2026-04-28 02:52:48] [INFO] Starting FIX session...
[2026-04-28 02:52:48] [DEBUG] POST https://papertrade.algotrade.vn/accounting/api/fix-account-info/get-fix-id payload_keys=['username', 'password']
[2026-04-28 02:52:48] [DEBUG] [TO ADMIN] 8=FIX.4.4|9=135|35=A|34=1|49=cf030e89c06043adbcd53a5b240a8910|52=20260428-02:52:48.826|56=SERVER|1=main|98=0|108=30|141=Y|553=Group07|554=U13tC8z6H8tO|10=195|
[2026-04-28 02:52:48] [INFO] Logged out: FIX.4.4:cf030e89c06043adbcd53a5b240a8910->SERVER
[2026-04-28 02:52:48] [DEBUG] No handlers registered for event 'fix:logout'
[2026-04-28 02:52:49] [DEBUG] POST https://papertrade.algotrade.vn/accounting/api/fix-account-info/get-fix-id succeeded status_code=200
[2026-04-28 02:52:49] [INFO] event=fix_id_resolved username=Group07 fixAccountID=7aed94a94297406599ec7580013d9bb8
[2026-04-28 02:52:52] [INFO] Stopping FIX session...
[2026-04-28 02:52:59] [DEBUG] [TO ADMIN] 8=FIX.4.4|9=102|35=0|34=144|49=cf030e89c06043adbcd53a5b240a8910|52=20260428-02:52:59.360|56=SERVER|1=main|553=Group07|10=082|
[2026-04-28 02:53:00] [DEBUG] [FROM ADMIN] 8=FIX.4.4|9=83|35=0|34=144|49=SERVER|52=20260428-02:53:00.325|56=cf030e89c06043adbcd53a5b240a8910|10=187|
[2026-04-28 02:53:29] [DEBUG] [TO ADMIN] 8=FIX.4.4|9=102|35=0|34=145|49=cf030e89c06043adbcd53a5b240a8910|52=20260428-02:53:29.253|56=SERVER|1=main|553=Group07|10=082|
[2026-04-28 02:53:30] [DEBUG] [FROM ADMIN] 8=FIX.4.4|9=83|35=0|34=145|49=SERVER|52=20260428-02:53:30.325|56=cf030e89c06043adbcd53a5b240a8910|10=191|
[2026-04-28 02:53:59] [DEBUG] [TO ADMIN] 8=FIX.4.4|9=102|35=0|34=146|49=cf030e89c06043adbcd53a5b240a8910|52=20260428-02:53:59.568|56=SERVER|1=main|553=Group07|10=095|
[2026-04-28 02:54:00] [DEBUG] [FROM ADMIN] 8=FIX.4.4|9=83|35=0|34=146|49=SERVER|52=20260428-02:54:00.325|56=cf030e89c06043adbcd53a5b240a8910|10=190|
[2026-04-28 02:54:29] [DEBUG] [TO ADMIN] 8=FIX.4.4|9=102|35=0|34=147|49=cf030e89c06043adbcd53a5b240a8910|52=20260428-02:54:29.055|56=SERVER|1=main|553=Group07|10=085|
[2026-04-28 02:54:30] [DEBUG] [FROM ADMIN] 8=FIX.4.4|9=83|35=0|34=147|49=SERVER|52=20260428-02:54:30.325|56=cf030e89c06043adbcd53a5b240a8910|10=194|
[2026-04-28 02:54:59] [DEBUG] [TO ADMIN] 8=FIX.4.4|9=102|35=0|34=148|49=cf030e89c06043adbcd53a5b240a8910|52=20260428-02:54:59.383|56=SERVER|1=main|553=Group07|10=093|
[2026-04-28 02:55:00] [DEBUG] [FROM ADMIN] 8=FIX.4.4|9=83|35=0|34=148|49=SERVER|52=20260428-02:55:00.326|56=cf030e89c06043adbcd53a5b240a8910|10=194|
[2026-04-28 02:55:29] [DEBUG] [TO ADMIN] 8=FIX.4.4|9=102|35=0|34=149|49=cf030e89c06043adbcd53a5b240a8910|52=20260428-02:55:29.325|56=SERVER|1=main|553=Group07|10=088|
[2026-04-28 02:55:30] [DEBUG] [FROM ADMIN] 8=FIX.4.4|9=83|35=0|34=149|49=SERVER|52=20260428-02:55:30.325|56=cf030e89c06043adbcd53a5b240a8910|10=197|
[2026-04-28 02:55:59] [DEBUG] [TO ADMIN] 8=FIX.4.4|9=102|35=0|34=150|49=cf030e89c06043adbcd53a5b240a8910|52=20260428-02:55:59.487|56=SERVER|1=main|553=Group07|10=092|
[2026-04-28 02:56:00] [DEBUG] [FROM ADMIN] 8=FIX.4.4|9=83|35=0|34=150|49=SERVER|52=20260428-02:56:00.325|56=cf030e89c06043adbcd53a5b240a8910|10=187|
[2026-04-28 02:56:29] [DEBUG] [TO ADMIN] 8=FIX.4.4|9=102|35=0|34=151|49=cf030e89c06043adbcd53a5b240a8910|52=20260428-02:56:29.087|56=SERVER|1=main|553=Group07|10=087|
[2026-04-28 02:56:30] [DEBUG] [FROM ADMIN] 8=FIX.4.4|9=83|35=0|34=151|49=SERVER|52=20260428-02:56:30.325|56=cf030e89c06043adbcd53a5b240a8910|10=191|
[2026-04-28 02:56:32] [INFO] Session created: FIX.4.4:cf030e89c06043adbcd53a5b240a8910->SERVER
[2026-04-28 02:56:32] [DEBUG] FIXSessionManager initialized config=/tmp/paperbroker_z0gkxvcg.cfg username=Group07
[2026-04-28 02:56:32] [DEBUG] RestSession initialized with base_url: https://papertrade.algotrade.vn/accounting
[2026-04-28 02:56:32] [DEBUG] Registered handler for event 'fix:logon'. Total handlers: 1
[2026-04-28 02:56:32] [DEBUG] Registered handler for event 'fix:order:filled'. Total handlers: 2
[2026-04-28 02:56:32] [DEBUG] Registered handler for event 'fix:order:rejected'. Total handlers: 3
[2026-04-28 02:56:32] [INFO] Starting FIX session...
[2026-04-28 02:56:32] [DEBUG] POST https://papertrade.algotrade.vn/accounting/api/fix-account-info/get-fix-id payload_keys=['username', 'password']
[2026-04-28 02:56:32] [DEBUG] [TO ADMIN] 8=FIX.4.4|9=135|35=A|34=1|49=cf030e89c06043adbcd53a5b240a8910|52=20260428-02:56:32.566|56=SERVER|1=main|98=0|108=30|141=Y|553=Group07|554=U13tC8z6H8tO|10=193|
[2026-04-28 02:56:32] [INFO] Logged out: FIX.4.4:cf030e89c06043adbcd53a5b240a8910->SERVER
[2026-04-28 02:56:32] [DEBUG] No handlers registered for event 'fix:logout'
[2026-04-28 02:56:33] [DEBUG] POST https://papertrade.algotrade.vn/accounting/api/fix-account-info/get-fix-id succeeded status_code=200
[2026-04-28 02:56:33] [INFO] event=fix_id_resolved username=Group07 fixAccountID=7aed94a94297406599ec7580013d9bb8
[2026-04-28 02:56:59] [DEBUG] [TO ADMIN] 8=FIX.4.4|9=102|35=0|34=152|49=cf030e89c06043adbcd53a5b240a8910|52=20260428-02:56:59.358|56=SERVER|1=main|553=Group07|10=092|
[2026-04-28 02:57:00] [DEBUG] [FROM ADMIN] 8=FIX.4.4|9=83|35=0|34=152|49=SERVER|52=20260428-02:57:00.325|56=cf030e89c06043adbcd53a5b240a8910|10=190|
[2026-04-28 02:57:02] [DEBUG] [TO ADMIN] 8=FIX.4.4|9=135|35=A|34=1|49=cf030e89c06043adbcd53a5b240a8910|52=20260428-02:57:02.138|56=SERVER|1=main|98=0|108=30|141=Y|553=Group07|554=U13tC8z6H8tO|10=186|
[2026-04-28 02:57:02] [INFO] Logged out: FIX.4.4:cf030e89c06043adbcd53a5b240a8910->SERVER
[2026-04-28 02:57:02] [DEBUG] No handlers registered for event 'fix:logout'
[2026-04-28 02:57:29] [DEBUG] [TO ADMIN] 8=FIX.4.4|9=102|35=0|34=153|49=cf030e89c06043adbcd53a5b240a8910|52=20260428-02:57:29.036|56=SERVER|1=main|553=Group07|10=084|
[2026-04-28 02:57:30] [DEBUG] [FROM ADMIN] 8=FIX.4.4|9=83|35=0|34=153|49=SERVER|52=20260428-02:57:30.325|56=cf030e89c06043adbcd53a5b240a8910|10=194|
[2026-04-28 02:57:32] [DEBUG] [TO ADMIN] 8=FIX.4.4|9=135|35=A|34=1|49=cf030e89c06043adbcd53a5b240a8910|52=20260428-02:57:32.150|56=SERVER|1=main|98=0|108=30|141=Y|553=Group07|554=U13tC8z6H8tO|10=183|
[2026-04-28 02:57:32] [INFO] Logged out: FIX.4.4:cf030e89c06043adbcd53a5b240a8910->SERVER
[2026-04-28 02:57:32] [DEBUG] No handlers registered for event 'fix:logout'
[2026-04-28 02:57:59] [DEBUG] [TO ADMIN] 8=FIX.4.4|9=102|35=0|34=154|49=cf030e89c06043adbcd53a5b240a8910|52=20260428-02:57:59.162|56=SERVER|1=main|553=Group07|10=088|
[2026-04-28 02:58:00] [DEBUG] [FROM ADMIN] 8=FIX.4.4|9=83|35=0|34=154|49=SERVER|52=20260428-02:58:00.325|56=cf030e89c06043adbcd53a5b240a8910|10=193|
[2026-04-28 02:58:02] [DEBUG] [TO ADMIN] 8=FIX.4.4|9=135|35=A|34=1|49=cf030e89c06043adbcd53a5b240a8910|52=20260428-02:58:02.644|56=SERVER|1=main|98=0|108=30|141=Y|553=Group07|554=U13tC8z6H8tO|10=189|
[2026-04-28 02:58:02] [INFO] Logged out: FIX.4.4:cf030e89c06043adbcd53a5b240a8910->SERVER
[2026-04-28 02:58:02] [DEBUG] No handlers registered for event 'fix:logout'
[2026-04-28 02:58:29] [DEBUG] [TO ADMIN] 8=FIX.4.4|9=102|35=0|34=155|49=cf030e89c06043adbcd53a5b240a8910|52=20260428-02:58:29.187|56=SERVER|1=main|553=Group07|10=094|
[2026-04-28 02:58:30] [DEBUG] [FROM ADMIN] 8=FIX.4.4|9=83|35=0|34=155|49=SERVER|52=20260428-02:58:30.325|56=cf030e89c06043adbcd53a5b240a8910|10=197|
[2026-04-28 02:58:32] [DEBUG] [TO ADMIN] 8=FIX.4.4|9=135|35=A|34=1|49=cf030e89c06043adbcd53a5b240a8910|52=20260428-02:58:32.605|56=SERVER|1=main|98=0|108=30|141=Y|553=Group07|554=U13tC8z6H8tO|10=189|
[2026-04-28 02:58:32] [INFO] Logged out: FIX.4.4:cf030e89c06043adbcd53a5b240a8910->SERVER
[2026-04-28 02:58:32] [DEBUG] No handlers registered for event 'fix:logout'
[2026-04-28 02:58:59] [DEBUG] [TO ADMIN] 8=FIX.4.4|9=102|35=0|34=156|49=cf030e89c06043adbcd53a5b240a8910|52=20260428-02:58:59.146|56=SERVER|1=main|553=Group07|10=093|
[2026-04-28 02:59:00] [DEBUG] [FROM ADMIN] 8=FIX.4.4|9=83|35=0|34=156|49=SERVER|52=20260428-02:59:00.325|56=cf030e89c06043adbcd53a5b240a8910|10=196|
[2026-04-28 02:59:02] [DEBUG] [TO ADMIN] 8=FIX.4.4|9=135|35=A|34=1|49=cf030e89c06043adbcd53a5b240a8910|52=20260428-02:59:02.861|56=SERVER|1=main|98=0|108=30|141=Y|553=Group07|554=U13tC8z6H8tO|10=191|
[2026-04-28 02:59:02] [INFO] Logged out: FIX.4.4:cf030e89c06043adbcd53a5b240a8910->SERVER
[2026-04-28 02:59:02] [DEBUG] No handlers registered for event 'fix:logout'
[2026-04-28 02:59:21] [INFO] Session created: FIX.4.4:cf030e89c06043adbcd53a5b240a8910->SERVER
[2026-04-28 02:59:21] [DEBUG] FIXSessionManager initialized config=/tmp/paperbroker_c7dvliq0.cfg username=Group07
[2026-04-28 02:59:21] [DEBUG] RestSession initialized with base_url: https://papertrade.algotrade.vn/accounting
[2026-04-28 02:59:21] [INFO] Starting FIX session...
[2026-04-28 02:59:21] [DEBUG] POST https://papertrade.algotrade.vn/accounting/api/fix-account-info/get-fix-id payload_keys=['username', 'password']
[2026-04-28 02:59:21] [DEBUG] [TO ADMIN] 8=FIX.4.4|9=135|35=A|34=1|49=cf030e89c06043adbcd53a5b240a8910|52=20260428-02:59:21.413|56=SERVER|1=main|98=0|108=30|141=Y|553=Group07|554=U13tC8z6H8tO|10=185|
[2026-04-28 02:59:21] [INFO] Logged out: FIX.4.4:cf030e89c06043adbcd53a5b240a8910->SERVER
[2026-04-28 02:59:21] [DEBUG] No handlers registered for event 'fix:logout'
[2026-04-28 02:59:21] [DEBUG] POST https://papertrade.algotrade.vn/accounting/api/fix-account-info/get-fix-id succeeded status_code=200
[2026-04-28 02:59:21] [INFO] event=fix_id_resolved username=Group07 fixAccountID=7aed94a94297406599ec7580013d9bb8
[2026-04-28 02:59:24] [INFO] Stopping FIX session...
[2026-04-28 02:59:29] [DEBUG] [TO ADMIN] 8=FIX.4.4|9=102|35=0|34=157|49=cf030e89c06043adbcd53a5b240a8910|52=20260428-02:59:29.051|56=SERVER|1=main|553=Group07|10=087|
[2026-04-28 02:59:30] [DEBUG] [FROM ADMIN] 8=FIX.4.4|9=83|35=0|34=157|49=SERVER|52=20260428-02:59:30.325|56=cf030e89c06043adbcd53a5b240a8910|10=200|
[2026-04-28 02:59:32] [DEBUG] [TO ADMIN] 8=FIX.4.4|9=135|35=A|34=1|49=cf030e89c06043adbcd53a5b240a8910|52=20260428-02:59:32.088|56=SERVER|1=main|98=0|108=30|141=Y|553=Group07|554=U13tC8z6H8tO|10=195|
[2026-04-28 02:59:32] [INFO] Logged out: FIX.4.4:cf030e89c06043adbcd53a5b240a8910->SERVER
[2026-04-28 02:59:32] [DEBUG] No handlers registered for event 'fix:logout'
[2026-04-28 02:59:59] [DEBUG] [TO ADMIN] 8=FIX.4.4|9=102|35=0|34=158|49=cf030e89c06043adbcd53a5b240a8910|52=20260428-02:59:59.419|56=SERVER|1=main|553=Group07|10=099|
[2026-04-28 03:00:00] [DEBUG] [FROM ADMIN] 8=FIX.4.4|9=83|35=0|34=158|49=SERVER|52=20260428-03:00:00.326|56=cf030e89c06043adbcd53a5b240a8910|10=186|
[2026-04-28 03:00:02] [DEBUG] [TO ADMIN] 8=FIX.4.4|9=135|35=A|34=1|49=cf030e89c06043adbcd53a5b240a8910|52=20260428-03:00:02.352|56=SERVER|1=main|98=0|108=30|141=Y|553=Group07|554=U13tC8z6H8tO|10=173|
[2026-04-28 03:00:02] [INFO] Logged out: FIX.4.4:cf030e89c06043adbcd53a5b240a8910->SERVER
[2026-04-28 03:00:02] [DEBUG] No handlers registered for event 'fix:logout'
[2026-04-28 03:00:29] [DEBUG] [TO ADMIN] 8=FIX.4.4|9=102|35=0|34=159|49=cf030e89c06043adbcd53a5b240a8910|52=20260428-03:00:29.615|56=SERVER|1=main|553=Group07|10=082|
[2026-04-28 03:00:30] [DEBUG] [FROM ADMIN] 8=FIX.4.4|9=83|35=0|34=159|49=SERVER|52=20260428-03:00:30.326|56=cf030e89c06043adbcd53a5b240a8910|10=190|
[2026-04-28 03:00:32] [DEBUG] [TO ADMIN] 8=FIX.4.4|9=135|35=A|34=1|49=cf030e89c06043adbcd53a5b240a8910|52=20260428-03:00:32.510|56=SERVER|1=main|98=0|108=30|141=Y|553=Group07|554=U13tC8z6H8tO|10=172|
[2026-04-28 03:00:32] [INFO] Logged out: FIX.4.4:cf030e89c06043adbcd53a5b240a8910->SERVER
[2026-04-28 03:00:32] [DEBUG] No handlers registered for event 'fix:logout'
[2026-04-28 03:00:59] [DEBUG] [TO ADMIN] 8=FIX.4.4|9=102|35=0|34=160|49=cf030e89c06043adbcd53a5b240a8910|52=20260428-03:00:59.690|56=SERVER|1=main|553=Group07|10=080|
[2026-04-28 03:01:00] [DEBUG] [FROM ADMIN] 8=FIX.4.4|9=83|35=0|34=160|49=SERVER|52=20260428-03:01:00.325|56=cf030e89c06043adbcd53a5b240a8910|10=179|
[2026-04-28 03:01:02] [DEBUG] [TO ADMIN] 8=FIX.4.4|9=135|35=A|34=1|49=cf030e89c06043adbcd53a5b240a8910|52=20260428-03:01:02.362|56=SERVER|1=main|98=0|108=30|141=Y|553=Group07|554=U13tC8z6H8tO|10=175|
[2026-04-28 03:01:02] [INFO] Logged out: FIX.4.4:cf030e89c06043adbcd53a5b240a8910->SERVER
[2026-04-28 03:01:02] [DEBUG] No handlers registered for event 'fix:logout'
[2026-04-28 03:01:29] [DEBUG] [TO ADMIN] 8=FIX.4.4|9=102|35=0|34=161|49=cf030e89c06043adbcd53a5b240a8910|52=20260428-03:01:29.504|56=SERVER|1=main|553=Group07|10=073|
[2026-04-28 03:01:30] [DEBUG] [FROM ADMIN] 8=FIX.4.4|9=83|35=0|34=161|49=SERVER|52=20260428-03:01:30.326|56=cf030e89c06043adbcd53a5b240a8910|10=184|
[2026-04-28 03:01:32] [DEBUG] [TO ADMIN] 8=FIX.4.4|9=135|35=A|34=1|49=cf030e89c06043adbcd53a5b240a8910|52=20260428-03:01:32.156|56=SERVER|1=main|98=0|108=30|141=Y|553=Group07|554=U13tC8z6H8tO|10=179|
[2026-04-28 03:01:32] [INFO] Logged out: FIX.4.4:cf030e89c06043adbcd53a5b240a8910->SERVER
[2026-04-28 03:01:32] [DEBUG] No handlers registered for event 'fix:logout'
[2026-04-28 03:01:59] [DEBUG] [TO ADMIN] 8=FIX.4.4|9=102|35=0|34=162|49=cf030e89c06043adbcd53a5b240a8910|52=20260428-03:01:59.336|56=SERVER|1=main|553=Group07|10=080|
[2026-04-28 03:02:00] [DEBUG] [FROM ADMIN] 8=FIX.4.4|9=83|35=0|34=162|49=SERVER|52=20260428-03:02:00.325|56=cf030e89c06043adbcd53a5b240a8910|10=182|
[2026-04-28 03:02:02] [DEBUG] [TO ADMIN] 8=FIX.4.4|9=135|35=A|34=1|49=cf030e89c06043adbcd53a5b240a8910|52=20260428-03:02:02.084|56=SERVER|1=main|98=0|108=30|141=Y|553=Group07|554=U13tC8z6H8tO|10=177|
[2026-04-28 03:02:02] [INFO] Logged out: FIX.4.4:cf030e89c06043adbcd53a5b240a8910->SERVER
[2026-04-28 03:02:02] [DEBUG] No handlers registered for event 'fix:logout'
[2026-04-28 03:02:29] [DEBUG] [TO ADMIN] 8=FIX.4.4|9=102|35=0|34=163|49=cf030e89c06043adbcd53a5b240a8910|52=20260428-03:02:29.268|56=SERVER|1=main|553=Group07|10=083|
[2026-04-28 03:02:30] [DEBUG] [FROM ADMIN] 8=FIX.4.4|9=83|35=0|34=163|49=SERVER|52=20260428-03:02:30.325|56=cf030e89c06043adbcd53a5b240a8910|10=186|
[2026-04-28 03:02:32] [DEBUG] [TO ADMIN] 8=FIX.4.4|9=135|35=A|34=1|49=cf030e89c06043adbcd53a5b240a8910|52=20260428-03:02:32.552|56=SERVER|1=main|98=0|108=30|141=Y|553=Group07|554=U13tC8z6H8tO|10=180|
[2026-04-28 03:02:32] [INFO] Logged out: FIX.4.4:cf030e89c06043adbcd53a5b240a8910->SERVER
[2026-04-28 03:02:32] [DEBUG] No handlers registered for event 'fix:logout'
[2026-04-28 03:02:59] [DEBUG] [TO ADMIN] 8=FIX.4.4|9=102|35=0|34=164|49=cf030e89c06043adbcd53a5b240a8910|52=20260428-03:02:59.171|56=SERVER|1=main|553=Group07|10=080|
[2026-04-28 03:03:00] [DEBUG] [FROM ADMIN] 8=FIX.4.4|9=83|35=0|34=164|49=SERVER|52=20260428-03:03:00.326|56=cf030e89c06043adbcd53a5b240a8910|10=186|
[2026-04-28 03:03:02] [DEBUG] [TO ADMIN] 8=FIX.4.4|9=135|35=A|34=1|49=cf030e89c06043adbcd53a5b240a8910|52=20260428-03:03:02.572|56=SERVER|1=main|98=0|108=30|141=Y|553=Group07|554=U13tC8z6H8tO|10=180|
[2026-04-28 03:03:02] [INFO] Logged out: FIX.4.4:cf030e89c06043adbcd53a5b240a8910->SERVER
[2026-04-28 03:03:02] [DEBUG] No handlers registered for event 'fix:logout'
[2026-04-28 03:03:29] [DEBUG] [TO ADMIN] 8=FIX.4.4|9=102|35=0|34=165|49=cf030e89c06043adbcd53a5b240a8910|52=20260428-03:03:29.203|56=SERVER|1=main|553=Group07|10=075|
[2026-04-28 03:03:30] [DEBUG] [FROM ADMIN] 8=FIX.4.4|9=83|35=0|34=165|49=SERVER|52=20260428-03:03:30.326|56=cf030e89c06043adbcd53a5b240a8910|10=190|
[2026-04-28 03:03:32] [DEBUG] [TO ADMIN] 8=FIX.4.4|9=135|35=A|34=1|49=cf030e89c06043adbcd53a5b240a8910|52=20260428-03:03:32.466|56=SERVER|1=main|98=0|108=30|141=Y|553=Group07|554=U13tC8z6H8tO|10=185|
[2026-04-28 03:03:32] [INFO] Logged out: FIX.4.4:cf030e89c06043adbcd53a5b240a8910->SERVER
[2026-04-28 03:03:32] [DEBUG] No handlers registered for event 'fix:logout'
[2026-04-28 03:03:59] [DEBUG] [TO ADMIN] 8=FIX.4.4|9=102|35=0|34=166|49=cf030e89c06043adbcd53a5b240a8910|52=20260428-03:03:59.357|56=SERVER|1=main|553=Group07|10=089|
[2026-04-28 03:04:00] [DEBUG] [FROM ADMIN] 8=FIX.4.4|9=83|35=0|34=166|49=SERVER|52=20260428-03:04:00.325|56=cf030e89c06043adbcd53a5b240a8910|10=188|
[2026-04-28 03:04:02] [DEBUG] [TO ADMIN] 8=FIX.4.4|9=135|35=A|34=1|49=cf030e89c06043adbcd53a5b240a8910|52=20260428-03:04:02.531|56=SERVER|1=main|98=0|108=30|141=Y|553=Group07|554=U13tC8z6H8tO|10=176|
[2026-04-28 03:04:02] [INFO] Logged out: FIX.4.4:cf030e89c06043adbcd53a5b240a8910->SERVER
[2026-04-28 03:04:02] [DEBUG] No handlers registered for event 'fix:logout'
[2026-04-28 03:04:29] [DEBUG] [TO ADMIN] 8=FIX.4.4|9=102|35=0|34=167|49=cf030e89c06043adbcd53a5b240a8910|52=20260428-03:04:29.100|56=SERVER|1=main|553=Group07|10=074|
[2026-04-28 03:04:30] [DEBUG] [FROM ADMIN] 8=FIX.4.4|9=83|35=0|34=167|49=SERVER|52=20260428-03:04:30.325|56=cf030e89c06043adbcd53a5b240a8910|10=192|
[2026-04-28 03:04:32] [DEBUG] [TO ADMIN] 8=FIX.4.4|9=135|35=A|34=1|49=cf030e89c06043adbcd53a5b240a8910|52=20260428-03:04:32.466|56=SERVER|1=main|98=0|108=30|141=Y|553=Group07|554=U13tC8z6H8tO|10=186|
[2026-04-28 03:04:32] [INFO] Logged out: FIX.4.4:cf030e89c06043adbcd53a5b240a8910->SERVER
[2026-04-28 03:04:32] [DEBUG] No handlers registered for event 'fix:logout'
[2026-04-28 03:04:57] [INFO] Session created: FIX.4.4:cf030e89c06043adbcd53a5b240a8910->SERVER
[2026-04-28 03:04:57] [DEBUG] FIXSessionManager initialized config=/tmp/paperbroker_qo6ug1qz.cfg username=Group07
[2026-04-28 03:04:57] [DEBUG] RestSession initialized with base_url: https://papertrade.algotrade.vn/accounting
[2026-04-28 03:04:57] [INFO] Starting FIX session...
[2026-04-28 03:04:57] [DEBUG] POST https://papertrade.algotrade.vn/accounting/api/fix-account-info/get-fix-id payload_keys=['username', 'password']
[2026-04-28 03:04:57] [DEBUG] [TO ADMIN] 8=FIX.4.4|9=135|35=A|34=1|49=cf030e89c06043adbcd53a5b240a8910|52=20260428-03:04:57.534|56=SERVER|1=main|98=0|108=30|141=Y|553=Group07|554=U13tC8z6H8tO|10=189|
[2026-04-28 03:04:57] [INFO] Logged out: FIX.4.4:cf030e89c06043adbcd53a5b240a8910->SERVER
[2026-04-28 03:04:57] [DEBUG] No handlers registered for event 'fix:logout'
[2026-04-28 03:04:58] [DEBUG] POST https://papertrade.algotrade.vn/accounting/api/fix-account-info/get-fix-id succeeded status_code=200
[2026-04-28 03:04:58] [INFO] event=fix_id_resolved username=Group07 fixAccountID=7aed94a94297406599ec7580013d9bb8
[2026-04-28 03:04:59] [DEBUG] [TO ADMIN] 8=FIX.4.4|9=102|35=0|34=168|49=cf030e89c06043adbcd53a5b240a8910|52=20260428-03:04:59.310|56=SERVER|1=main|553=Group07|10=081|
[2026-04-28 03:05:00] [DEBUG] [FROM ADMIN] 8=FIX.4.4|9=83|35=0|34=168|49=SERVER|52=20260428-03:05:00.325|56=cf030e89c06043adbcd53a5b240a8910|10=191|
[2026-04-28 03:05:01] [INFO] Stopping FIX session...
[2026-04-28 03:05:02] [DEBUG] [TO ADMIN] 8=FIX.4.4|9=135|35=A|34=1|49=cf030e89c06043adbcd53a5b240a8910|52=20260428-03:05:02.453|56=SERVER|1=main|98=0|108=30|141=Y|553=Group07|554=U13tC8z6H8tO|10=180|
[2026-04-28 03:05:02] [INFO] Logged out: FIX.4.4:cf030e89c06043adbcd53a5b240a8910->SERVER
[2026-04-28 03:05:02] [DEBUG] No handlers registered for event 'fix:logout'
[2026-04-28 03:05:29] [DEBUG] [TO ADMIN] 8=FIX.4.4|9=102|35=0|34=169|49=cf030e89c06043adbcd53a5b240a8910|52=20260428-03:05:29.046|56=SERVER|1=main|553=Group07|10=086|
[2026-04-28 03:05:30] [DEBUG] [FROM ADMIN] 8=FIX.4.4|9=83|35=0|34=169|49=SERVER|52=20260428-03:05:30.325|56=cf030e89c06043adbcd53a5b240a8910|10=195|
[2026-04-28 03:05:32] [DEBUG] [TO ADMIN] 8=FIX.4.4|9=135|35=A|34=1|49=cf030e89c06043adbcd53a5b240a8910|52=20260428-03:05:32.096|56=SERVER|1=main|98=0|108=30|141=Y|553=Group07|554=U13tC8z6H8tO|10=186|
[2026-04-28 03:05:32] [INFO] Logged out: FIX.4.4:cf030e89c06043adbcd53a5b240a8910->SERVER
[2026-04-28 03:05:32] [DEBUG] No handlers registered for event 'fix:logout'
[2026-04-28 03:05:59] [DEBUG] [TO ADMIN] 8=FIX.4.4|9=102|35=0|34=170|49=cf030e89c06043adbcd53a5b240a8910|52=20260428-03:05:59.283|56=SERVER|1=main|553=Group07|10=084|
[2026-04-28 03:06:00] [DEBUG] [FROM ADMIN] 8=FIX.4.4|9=83|35=0|34=170|49=SERVER|52=20260428-03:06:00.325|56=cf030e89c06043adbcd53a5b240a8910|10=185|
[2026-04-28 03:06:02] [DEBUG] [TO ADMIN] 8=FIX.4.4|9=135|35=A|34=1|49=cf030e89c06043adbcd53a5b240a8910|52=20260428-03:06:02.452|56=SERVER|1=main|98=0|108=30|141=Y|553=Group07|554=U13tC8z6H8tO|10=180|
[2026-04-28 03:06:02] [INFO] Logged out: FIX.4.4:cf030e89c06043adbcd53a5b240a8910->SERVER
[2026-04-28 03:06:02] [DEBUG] No handlers registered for event 'fix:logout'
[2026-04-28 03:06:29] [DEBUG] [TO ADMIN] 8=FIX.4.4|9=102|35=0|34=171|49=cf030e89c06043adbcd53a5b240a8910|52=20260428-03:06:29.133|56=SERVER|1=main|553=Group07|10=077|
[2026-04-28 03:06:30] [DEBUG] [FROM ADMIN] 8=FIX.4.4|9=83|35=0|34=171|49=SERVER|52=20260428-03:06:30.326|56=cf030e89c06043adbcd53a5b240a8910|10=190|
[2026-04-28 03:06:32] [DEBUG] [TO ADMIN] 8=FIX.4.4|9=135|35=A|34=1|49=cf030e89c06043adbcd53a5b240a8910|52=20260428-03:06:32.284|56=SERVER|1=main|98=0|108=30|141=Y|553=Group07|554=U13tC8z6H8tO|10=186|
[2026-04-28 03:06:32] [INFO] Logged out: FIX.4.4:cf030e89c06043adbcd53a5b240a8910->SERVER
[2026-04-28 03:06:32] [DEBUG] No handlers registered for event 'fix:logout'
[2026-04-28 03:06:59] [DEBUG] [TO ADMIN] 8=FIX.4.4|9=102|35=0|34=172|49=cf030e89c06043adbcd53a5b240a8910|52=20260428-03:06:59.104|56=SERVER|1=main|553=Group07|10=079|
[2026-04-28 03:07:00] [DEBUG] [FROM ADMIN] 8=FIX.4.4|9=83|35=0|34=172|49=SERVER|52=20260428-03:07:00.326|56=cf030e89c06043adbcd53a5b240a8910|10=189|
[2026-04-28 03:07:02] [DEBUG] [TO ADMIN] 8=FIX.4.4|9=135|35=A|34=1|49=cf030e89c06043adbcd53a5b240a8910|52=20260428-03:07:02.124|56=SERVER|1=main|98=0|108=30|141=Y|553=Group07|554=U13tC8z6H8tO|10=177|
[2026-04-28 03:07:02] [INFO] Logged out: FIX.4.4:cf030e89c06043adbcd53a5b240a8910->SERVER
[2026-04-28 03:07:02] [DEBUG] No handlers registered for event 'fix:logout'
[2026-04-28 03:07:35] [INFO] Session created: FIX.4.4:cf030e89c06043adbcd53a5b240a8910->SERVER
[2026-04-28 03:07:35] [DEBUG] FIXSessionManager initialized config=/tmp/paperbroker_fq2bzxbf.cfg username=Group07
[2026-04-28 03:07:35] [DEBUG] RestSession initialized with base_url: https://papertrade.algotrade.vn/accounting
[2026-04-28 03:07:35] [INFO] Starting FIX session...
[2026-04-28 03:07:35] [DEBUG] POST https://papertrade.algotrade.vn/accounting/api/fix-account-info/get-fix-id payload_keys=['username', 'password']
[2026-04-28 03:07:35] [DEBUG] [TO ADMIN] 8=FIX.4.4|9=135|35=A|34=1|49=cf030e89c06043adbcd53a5b240a8910|52=20260428-03:07:35.243|56=SERVER|1=main|98=0|108=30|141=Y|553=Group07|554=U13tC8z6H8tO|10=185|
[2026-04-28 03:07:36] [DEBUG] POST https://papertrade.algotrade.vn/accounting/api/fix-account-info/get-fix-id succeeded status_code=200
[2026-04-28 03:07:36] [INFO] event=fix_id_resolved username=Group07 fixAccountID=7aed94a94297406599ec7580013d9bb8
[2026-04-28 03:07:36] [DEBUG] [FROM ADMIN] 8=FIX.4.4|9=99|35=A|34=1|49=SERVER|52=20260428-03:07:36.149|56=cf030e89c06043adbcd53a5b240a8910|98=0|108=30|141=Y|10=190|
[2026-04-28 03:07:36] [INFO] Logon success: FIX.4.4:cf030e89c06043adbcd53a5b240a8910->SERVER
[2026-04-28 03:07:36] [INFO] Order manager session set: FIX.4.4:cf030e89c06043adbcd53a5b240a8910->SERVER
[2026-04-28 03:07:36] [DEBUG] No handlers registered for event 'fix:logon'
[2026-04-28 03:07:39] [INFO] Stopping FIX session...
[2026-04-28 03:07:39] [DEBUG] [TO ADMIN] 8=FIX.4.4|9=100|35=5|34=2|49=cf030e89c06043adbcd53a5b240a8910|52=20260428-03:07:39.679|56=SERVER|1=main|553=Group07|10=250|
[2026-04-28 03:07:39] [DEBUG] [FROM ADMIN] 8=FIX.4.4|9=81|35=5|34=2|49=SERVER|52=20260428-03:07:39.845|56=cf030e89c06043adbcd53a5b240a8910|10=106|
[2026-04-28 03:07:39] [INFO] Logged out: FIX.4.4:cf030e89c06043adbcd53a5b240a8910->SERVER
[2026-04-28 03:07:39] [DEBUG] No handlers registered for event 'fix:logout'
[2026-04-28 10:07:50] [INFO] Session created: FIX.4.4:cf030e89c06043adbcd53a5b240a8910->SERVER
[2026-04-28 10:07:50] [DEBUG] FIXSessionManager initialized config=/tmp/paperbroker_a36ar16m.cfg username=Group07
[2026-04-28 10:07:50] [DEBUG] RestSession initialized with base_url: https://papertrade.algotrade.vn/accounting
[2026-04-28 10:07:50] [DEBUG] Registered handler for event 'fix:logon'. Total handlers: 1
[2026-04-28 10:07:50] [DEBUG] Registered handler for event 'fix:order:filled'. Total handlers: 2
[2026-04-28 10:07:50] [DEBUG] Registered handler for event 'fix:order:rejected'. Total handlers: 3
[2026-04-28 10:07:50] [INFO] Starting FIX session...
[2026-04-28 10:07:50] [DEBUG] POST https://papertrade.algotrade.vn/accounting/api/fix-account-info/get-fix-id payload_keys=['username', 'password']
[2026-04-28 10:07:50] [DEBUG] [TO ADMIN] 8=FIX.4.4|9=135|35=A|34=1|49=cf030e89c06043adbcd53a5b240a8910|52=20260428-03:07:50.437|56=SERVER|1=main|98=0|108=30|141=Y|553=Group07|554=U13tC8z6H8tO|10=187|
[2026-04-28 10:07:51] [DEBUG] POST https://papertrade.algotrade.vn/accounting/api/fix-account-info/get-fix-id succeeded status_code=200
[2026-04-28 10:07:51] [INFO] event=fix_id_resolved username=Group07 fixAccountID=7aed94a94297406599ec7580013d9bb8
[2026-04-28 10:07:51] [DEBUG] [FROM ADMIN] 8=FIX.4.4|9=99|35=A|34=1|49=SERVER|52=20260428-03:07:51.313|56=cf030e89c06043adbcd53a5b240a8910|98=0|108=30|141=Y|10=180|
[2026-04-28 10:07:51] [INFO] Logon success: FIX.4.4:cf030e89c06043adbcd53a5b240a8910->SERVER
[2026-04-28 10:07:51] [INFO] Order manager session set: FIX.4.4:cf030e89c06043adbcd53a5b240a8910->SERVER
[2026-04-28 10:07:51] [DEBUG] Emitting event 'fix:logon' to 1 handler(s)
[2026-04-28 10:07:51] [INFO] Initialized RedisMarketDataClient: 52.76.242.46:6380 db=0, merge_updates=True
[2026-04-28 10:07:51] [INFO] Registered callback for HNXDS:VN30F2605. Total callbacks: 1
[2026-04-28 10:07:51] [INFO] Connected to Redis: 52.76.242.46:6380
[2026-04-28 10:07:51] [INFO] Subscribed to 1 channels: ['HNXDS:VN30F2605']
[2026-04-28 10:07:51] [INFO] Subscription loop started
[2026-04-28 10:07:51] [INFO] Pub/sub loop running...
[2026-04-28 10:08:20] [DEBUG] [TO ADMIN] 8=FIX.4.4|9=100|35=0|34=2|49=cf030e89c06043adbcd53a5b240a8910|52=20260428-03:08:20.459|56=SERVER|1=main|553=Group07|10=232|
[2026-04-28 10:08:21] [DEBUG] [FROM ADMIN] 8=FIX.4.4|9=81|35=0|34=2|49=SERVER|52=20260428-03:08:21.326|56=cf030e89c06043adbcd53a5b240a8910|10=087|
[2026-04-28 10:08:26] [INFO] Stopping FIX session...
[2026-04-28 10:08:26] [DEBUG] [TO ADMIN] 8=FIX.4.4|9=100|35=5|34=3|49=cf030e89c06043adbcd53a5b240a8910|52=20260428-03:08:26.975|56=SERVER|1=main|553=Group07|10=247|
[2026-04-28 10:08:27] [DEBUG] [FROM ADMIN] 8=FIX.4.4|9=81|35=5|34=3|49=SERVER|52=20260428-03:08:27.137|56=cf030e89c06043adbcd53a5b240a8910|10=099|
[2026-04-28 10:08:27] [INFO] Logged out: FIX.4.4:cf030e89c06043adbcd53a5b240a8910->SERVER
[2026-04-28 10:08:27] [DEBUG] No handlers registered for event 'fix:logout'
[2026-04-28 10:09:01] [INFO] Session created: FIX.4.4:cf030e89c06043adbcd53a5b240a8910->SERVER
[2026-04-28 10:09:01] [DEBUG] FIXSessionManager initialized config=/tmp/paperbroker_j1lm65nl.cfg username=Group07
[2026-04-28 10:09:01] [DEBUG] RestSession initialized with base_url: https://papertrade.algotrade.vn/accounting
[2026-04-28 10:09:01] [DEBUG] Registered handler for event 'fix:logon'. Total handlers: 1
[2026-04-28 10:09:01] [DEBUG] Registered handler for event 'fix:order:filled'. Total handlers: 2
[2026-04-28 10:09:01] [DEBUG] Registered handler for event 'fix:order:rejected'. Total handlers: 3
[2026-04-28 10:09:01] [INFO] Starting FIX session...
[2026-04-28 10:09:01] [DEBUG] POST https://papertrade.algotrade.vn/accounting/api/fix-account-info/get-fix-id payload_keys=['username', 'password']
[2026-04-28 10:09:02] [DEBUG] [TO ADMIN] 8=FIX.4.4|9=135|35=A|34=1|49=cf030e89c06043adbcd53a5b240a8910|52=20260428-03:09:02.040|56=SERVER|1=main|98=0|108=30|141=Y|553=Group07|554=U13tC8z6H8tO|10=176|
[2026-04-28 10:09:02] [DEBUG] POST https://papertrade.algotrade.vn/accounting/api/fix-account-info/get-fix-id succeeded status_code=200
[2026-04-28 10:09:02] [INFO] event=fix_id_resolved username=Group07 fixAccountID=7aed94a94297406599ec7580013d9bb8
[2026-04-28 10:09:02] [DEBUG] [FROM ADMIN] 8=FIX.4.4|9=99|35=A|34=1|49=SERVER|52=20260428-03:09:02.942|56=cf030e89c06043adbcd53a5b240a8910|98=0|108=30|141=Y|10=186|
[2026-04-28 10:09:02] [INFO] Logon success: FIX.4.4:cf030e89c06043adbcd53a5b240a8910->SERVER
[2026-04-28 10:09:02] [INFO] Order manager session set: FIX.4.4:cf030e89c06043adbcd53a5b240a8910->SERVER
[2026-04-28 10:09:02] [DEBUG] Emitting event 'fix:logon' to 1 handler(s)
[2026-04-28 10:09:02] [INFO] Initialized RedisMarketDataClient: 52.76.242.46:6380 db=0, merge_updates=True
[2026-04-28 10:09:02] [INFO] Registered callback for HNXDS:VN30F2605. Total callbacks: 1
[2026-04-28 10:09:03] [INFO] Connected to Redis: 52.76.242.46:6380
[2026-04-28 10:09:03] [INFO] Subscribed to 1 channels: ['HNXDS:VN30F2605']
[2026-04-28 10:09:03] [INFO] Subscription loop started
[2026-04-28 10:09:03] [INFO] Pub/sub loop running...
[2026-04-28 10:09:09] [INFO] Stopping FIX session...
[2026-04-28 10:09:09] [DEBUG] [TO ADMIN] 8=FIX.4.4|9=100|35=5|34=2|49=cf030e89c06043adbcd53a5b240a8910|52=20260428-03:09:09.151|56=SERVER|1=main|553=Group07|10=234|
[2026-04-28 10:09:09] [DEBUG] [FROM ADMIN] 8=FIX.4.4|9=81|35=5|34=2|49=SERVER|52=20260428-03:09:09.312|56=cf030e89c06043adbcd53a5b240a8910|10=094|
[2026-04-28 10:09:09] [INFO] Logged out: FIX.4.4:cf030e89c06043adbcd53a5b240a8910->SERVER
[2026-04-28 10:09:09] [DEBUG] No handlers registered for event 'fix:logout'
[2026-04-28 10:09:37] [INFO] Session created: FIX.4.4:cf030e89c06043adbcd53a5b240a8910->SERVER
[2026-04-28 10:09:37] [DEBUG] FIXSessionManager initialized config=/tmp/paperbroker_mpzwa1ob.cfg username=Group07
[2026-04-28 10:09:37] [DEBUG] RestSession initialized with base_url: https://papertrade.algotrade.vn/accounting
[2026-04-28 10:09:37] [DEBUG] Registered handler for event 'fix:logon'. Total handlers: 1
[2026-04-28 10:09:37] [DEBUG] Registered handler for event 'fix:order:filled'. Total handlers: 2
[2026-04-28 10:09:37] [DEBUG] Registered handler for event 'fix:order:rejected'. Total handlers: 3
[2026-04-28 10:09:37] [INFO] Starting FIX session...
[2026-04-28 10:09:37] [DEBUG] POST https://papertrade.algotrade.vn/accounting/api/fix-account-info/get-fix-id payload_keys=['username', 'password']
[2026-04-28 10:09:37] [DEBUG] [TO ADMIN] 8=FIX.4.4|9=135|35=A|34=1|49=cf030e89c06043adbcd53a5b240a8910|52=20260428-03:09:37.757|56=SERVER|1=main|98=0|108=30|141=Y|553=Group07|554=U13tC8z6H8tO|10=199|
[2026-04-28 10:09:38] [DEBUG] POST https://papertrade.algotrade.vn/accounting/api/fix-account-info/get-fix-id succeeded status_code=200
[2026-04-28 10:09:38] [INFO] event=fix_id_resolved username=Group07 fixAccountID=7aed94a94297406599ec7580013d9bb8
[2026-04-28 10:09:38] [DEBUG] [FROM ADMIN] 8=FIX.4.4|9=99|35=A|34=1|49=SERVER|52=20260428-03:09:38.667|56=cf030e89c06043adbcd53a5b240a8910|98=0|108=30|141=Y|10=199|
[2026-04-28 10:09:38] [INFO] Logon success: FIX.4.4:cf030e89c06043adbcd53a5b240a8910->SERVER
[2026-04-28 10:09:38] [INFO] Order manager session set: FIX.4.4:cf030e89c06043adbcd53a5b240a8910->SERVER
[2026-04-28 10:09:38] [DEBUG] Emitting event 'fix:logon' to 1 handler(s)
[2026-04-28 10:09:38] [INFO] Initialized RedisMarketDataClient: 52.76.242.46:6380 db=0, merge_updates=True
[2026-04-28 10:09:38] [INFO] Registered callback for HNXDS:VN30F2605. Total callbacks: 1
[2026-04-28 10:09:38] [INFO] Connected to Redis: 52.76.242.46:6380
[2026-04-28 10:09:38] [INFO] Subscribed to 1 channels: ['HNXDS:VN30F2605']
[2026-04-28 10:09:38] [INFO] Subscription loop started
[2026-04-28 10:09:38] [INFO] Pub/sub loop running...
[2026-04-28 10:10:07] [DEBUG] [TO ADMIN] 8=FIX.4.4|9=100|35=0|34=2|49=cf030e89c06043adbcd53a5b240a8910|52=20260428-03:10:07.137|56=SERVER|1=main|553=Group07|10=223|
[2026-04-28 10:10:09] [DEBUG] [FROM ADMIN] 8=FIX.4.4|9=81|35=0|34=2|49=SERVER|52=20260428-03:10:09.325|56=cf030e89c06043adbcd53a5b240a8910|10=085|
[2026-04-28 10:10:28] [INFO] Stopping FIX session...
[2026-04-28 10:10:28] [DEBUG] [TO ADMIN] 8=FIX.4.4|9=100|35=5|34=3|49=cf030e89c06043adbcd53a5b240a8910|52=20260428-03:10:28.231|56=SERVER|1=main|553=Group07|10=227|
[2026-04-28 10:10:28] [DEBUG] [FROM ADMIN] 8=FIX.4.4|9=81|35=5|34=3|49=SERVER|52=20260428-03:10:28.394|56=cf030e89c06043adbcd53a5b240a8910|10=098|
[2026-04-28 10:10:28] [INFO] Logged out: FIX.4.4:cf030e89c06043adbcd53a5b240a8910->SERVER
[2026-04-28 10:10:28] [DEBUG] No handlers registered for event 'fix:logout'
[2026-04-28 10:14:04] [INFO] Session created: FIX.4.4:cf030e89c06043adbcd53a5b240a8910->SERVER
[2026-04-28 10:14:04] [DEBUG] FIXSessionManager initialized config=/tmp/paperbroker_783ivytc.cfg username=Group07
[2026-04-28 10:14:04] [DEBUG] RestSession initialized with base_url: https://papertrade.algotrade.vn/accounting
[2026-04-28 10:14:04] [DEBUG] Registered handler for event 'fix:logon'. Total handlers: 1
[2026-04-28 10:14:04] [DEBUG] Registered handler for event 'fix:order:filled'. Total handlers: 2
[2026-04-28 10:14:04] [DEBUG] Registered handler for event 'fix:order:rejected'. Total handlers: 3
[2026-04-28 10:14:04] [INFO] Starting FIX session...
[2026-04-28 10:14:04] [DEBUG] POST https://papertrade.algotrade.vn/accounting/api/fix-account-info/get-fix-id payload_keys=['username', 'password']
[2026-04-28 10:14:04] [DEBUG] [TO ADMIN] 8=FIX.4.4|9=135|35=A|34=1|49=cf030e89c06043adbcd53a5b240a8910|52=20260428-03:14:04.242|56=SERVER|1=main|98=0|108=30|141=Y|553=Group07|554=U13tC8z6H8tO|10=178|
[2026-04-28 10:14:05] [DEBUG] POST https://papertrade.algotrade.vn/accounting/api/fix-account-info/get-fix-id succeeded status_code=200
[2026-04-28 10:14:05] [INFO] event=fix_id_resolved username=Group07 fixAccountID=7aed94a94297406599ec7580013d9bb8
[2026-04-28 10:14:05] [DEBUG] [FROM ADMIN] 8=FIX.4.4|9=99|35=A|34=1|49=SERVER|52=20260428-03:14:05.140|56=cf030e89c06043adbcd53a5b240a8910|98=0|108=30|141=Y|10=175|
[2026-04-28 10:14:05] [INFO] Logon success: FIX.4.4:cf030e89c06043adbcd53a5b240a8910->SERVER
[2026-04-28 10:14:05] [INFO] Order manager session set: FIX.4.4:cf030e89c06043adbcd53a5b240a8910->SERVER
[2026-04-28 10:14:05] [DEBUG] Emitting event 'fix:logon' to 1 handler(s)
[2026-04-28 10:14:05] [INFO] Initialized RedisMarketDataClient: 52.76.242.46:6380 db=0, merge_updates=True
[2026-04-28 10:14:05] [INFO] Registered callback for HNXDS:VN30F2605. Total callbacks: 1
[2026-04-28 10:14:05] [INFO] Connected to Redis: 52.76.242.46:6380
[2026-04-28 10:14:05] [INFO] Subscribed to 1 channels: ['HNXDS:VN30F2605']
[2026-04-28 10:14:05] [INFO] Subscription loop started
[2026-04-28 10:14:05] [INFO] Pub/sub loop running...
[2026-04-28 10:14:27] [INFO] Stopping FIX session...
[2026-04-28 10:14:28] [DEBUG] [TO ADMIN] 8=FIX.4.4|9=100|35=5|34=2|49=cf030e89c06043adbcd53a5b240a8910|52=20260428-03:14:28.742|56=SERVER|1=main|553=Group07|10=237|
[2026-04-28 10:14:28] [DEBUG] [FROM ADMIN] 8=FIX.4.4|9=81|35=5|34=2|49=SERVER|52=20260428-03:14:28.908|56=cf030e89c06043adbcd53a5b240a8910|10=102|
[2026-04-28 10:14:28] [INFO] Logged out: FIX.4.4:cf030e89c06043adbcd53a5b240a8910->SERVER
[2026-04-28 10:14:28] [DEBUG] No handlers registered for event 'fix:logout'
[2026-04-28 10:16:02] [INFO] Session created: FIX.4.4:cf030e89c06043adbcd53a5b240a8910->SERVER
[2026-04-28 10:16:02] [DEBUG] FIXSessionManager initialized config=/tmp/paperbroker_c40luiqa.cfg username=Group07
[2026-04-28 10:16:02] [DEBUG] RestSession initialized with base_url: https://papertrade.algotrade.vn/accounting
[2026-04-28 10:16:02] [DEBUG] Registered handler for event 'fix:logon'. Total handlers: 1
[2026-04-28 10:16:02] [DEBUG] Registered handler for event 'fix:order:filled'. Total handlers: 2
[2026-04-28 10:16:02] [DEBUG] Registered handler for event 'fix:order:rejected'. Total handlers: 3
[2026-04-28 10:16:02] [INFO] Starting FIX session...
[2026-04-28 10:16:02] [DEBUG] POST https://papertrade.algotrade.vn/accounting/api/fix-account-info/get-fix-id payload_keys=['username', 'password']
